:100000000C9499030C94E0030C94E0030C940026E8
:100010000C94E0030C94E0030C94E0030C94E003D4
:100020000C94E0030C94E0030C944E1D0C948A1C79
:100030000C94E1220C94E0030C94E0030C94E00394
:100040000C94E0030C94E0030C94E0030C94E003A4
:100050000C94E0030C948A220C94E0030C94E003CB
:100060000C94E0030C94E0030C94E0030C94E00384
:100070000C94E0030C94E0030C94E0030C94E00374
:100080000C94E0030C94E0030C94E0030C94E00364
:100090000C94EE240C94E0030C94E0030C94E00325
:1000A0000C94E0030C94E0030C94E0036A0B790BCE
:1000B000790B790B6A0BF00B790B790B6A0BF00B50
:1000C000790BF00B790B790B6A0BF00BF00B790BBA
:1000D000790B790B6A0BF00BF00BF00BF00B790B33
:1000E0003D12601265126A126F12741279127E123A
:1000F000831288128D1294126315631563156315AC
:100100006315631563156315071307134113411333
:1001100026159413261526159F137D148E148E1400
:10012000991AC01A621CC01A621C081B2B1B621C85
:10013000261C391CA51EA51EB81EB81EAE1EB81E54
:10014000B81EB81EA51EA51EB31EB81EB81EB31E2F
:10015000010000400F00020000400E0004000040BB
:100160002E0008000040110010000040190020007F
:1001700000402800400000400A00800000400000CD
:1001800000010040000000020040000000040040A8
:1001900000000008004000000010004000000020A7
:1001A00000400000004000400000008000400000CF
:1001B0000000014036020000024007000000044039
:1001C0001500000008400900000010400000000079
:1001D00020400500000040401D0000008040140049
:1001E00000000041000000000042370200000060F3
:1001F0000000000000440000000000480000000073
:1002000000500000000041400000010004403102A5
:100210000000804200001000404030000800044010
:10022000270204008040300210000240250228000E
:1002300000402E0204002040000000000A40350269
:1002400060000040310002002040000040000240F9
:10025000000022000040000030000040340208008E
:100260002040330210000440210208008040220296
:10027000010000000400020000000D000400000066
:100280002D000800000008001000000018002000E9
:1002900000000C004000000006008000000000008C
:1002A0000001000000000002000000000004000047
:1002B0000000000800000000001000000000002006
:1002C000000000000040000000000080000000006E
:1002D00000000100360000000200170000000400CA
:1002E00012000000080013000000100000000000D1
:1002F00020000B00000040001600000080001B00E2
:100300000000000100000000000237000000002093
:1003100000000000000400000000000800000000D1
:1003200000100000000041001E02010004002D0228
:10033000000080023802100040002F000800040076
:100340002602040080002F02100002001A0028007C
:1003500000001C0004002000100000000A0035000E
:100360006000000038000200200000004000020091
:1003700024022200000023023000000034000800A4
:1003800020003300100004001F020800800020023B
:100390000001010101010101010102020202020248
:1003A000020202030303030303030304040404041B
:1003B00004040505050505060606060607070707E2
:1003C0000708080808090909090A0A0A0B0B0B0C97
:1003D0000C0C0D0D0D0E0E0E0F0F0F101011111134
:1003E00012121313141415151616171718181919B5
:1003F0001A1A1B1B1C1D1D1E1E1F2020212222231A
:100400002424252626272829292A2B2C2D2D2E2F5A
:1004100030313232333435363738393A3B3C3D3E71
:100420003F404142434445464748494A4C4D4E4F60
:1004300050515354555658595A5B5D5E5F61626422
:10044000656668696B6C6D6F7072737577787A7BAF
:100450007D7E8082838587888A8C8E8F9193959606
:10046000989A9C9EA0A2A3A5A7A9ABADAFB1B3B526
:10047000B7BABCBEC0C2C4C6C9CBCDCFD1D4D6D802
:10048000DBDDDFE2E4E7E9EBEEF0F3F5F8FAFDFFA0
:100490000001020304051A17110B0A10161918158A
:1004A0000F09080E14130D07060C12290014001A68
:1004B000000800150017002B0004001600070009B3
:1004C000000A00E5001D001B0006001900050000E1
:1004D00000000000002B422A41E100000000000063
:1004E000000000000000000000000000000000000C
:1004F00000000000000000000000000000000000FC
:1005000000000000000000000000004C004B004A0A
:100510000052004D00000049004E00500051004FB5
:10052000000000E500E400E700E600900091000014
:10053000000000000003512A41E10000004B004A86
:100540000052004D00000000004E00500051004FCE
:10055000000000000000000000000000000000009B
:10056000000000000000000000000001002D002439
:100570000025002600380001002E02210022002361
:10058000002502370027001E001F00200022020065
:1005900000000000002B420351E1000000000000B9
:1005A000000000000000000000000000000000004B
:1005B000000000000000000000000000000000003B
:1005C0000000000000000000000000005C3A003B5A
:1005D000003C003D003E0046003F0040004100421C
:1005E000004300840044004500680082008300004E
:1005F000000000000003510351E100000000000072
:1006000000000000000000000000000000000000EA
:1006100000000000000000000000000000000000DA
:10062000000000000000000000000005010902A118
:100630000185020901A100050919012905150025F7
:100640000195057501810295017503810105010977
:100650003009311581257F95027508810609381505
:1006600081257F950175088106050C0A38021581E0
:10067000257F950175088106C0C005010906A10105
:10068000050719E029E71500250195087501810284
:100690009501750881010507190029FF150026FF3E
:1006A000009506750881000508190129059505754D
:1006B000019102950175039101C009023B000201FD
:1006C00000A0FA0904000001030101000921110141
:1006D00000012240000705810308000A0904010007
:1006E0000103000000092111010001224F0007054C
:1006F000820320000A1201100100000008EDFE60D4
:10070000300100010203010403300000000C034328
:10071000006F0072006E0065000000100366006F3D
:10072000006F007300740061006E00000004030994
:10073000040011241FBECFEFDAE0DEBFCDBF04B648
:1007400003FE27C08091600390916103A091620332
:10075000B09163038730904BA740B04BD1F4109217
:10076000600310926103109262031092630314BE3F
:1007700084B7877F84BF0FB6F894A89580916000F6
:10078000886180936000109260000FBEE0E0F8E3A3
:10079000099523E0A0EFB1E001C01D92A036B20799
:1007A000E1F711E0A0E0B1E0E8E4FFE402C0059069
:1007B0000D92A03FB107D9F70E94DA160C94A22738
:1007C0000C9400009091960292FF0DC0282F287182
:1007D000283019F4877F846006C0282F24712430C4
:1007E00011F48B7F886093FF0DC0282F287128316A
:1007F00019F4877E846106C0282F2471243111F4F6
:100800008B7E88612091970220FF0DC0382F3871B0
:10081000383019F4877F816006C0382F317131304C
:1008200011F48E7F886021FF0DC0282F2871283198
:1008300019F4877E816106C0282F2171213111F4BE
:100840008E7E886194FD877E08959C013A952115DE
:100850003F4138F5DC01AA27B270AC01442754703F
:100860009C012227387094FF0FC090FF02C080E1E6
:1008700001C080E0AB2B09F08062452B09F0806459
:10088000232B69F080680BC0892F8170AB2B09F096
:100890008260452B09F08460232B09F08860FB01FE
:1008A00009940895EEE1F1E0158612861186168A04
:1008B00086859785A089B18988279927AA27B07C42
:1008C00086879787A08BB18B128A138A148A158A20
:1008D0000895CF93DF93EC010E94B320CE01805E98
:1008E0009109089710F0209719F461ED7EE102C09C
:1008F0006CEB7EE1CE01DF91CF910C942504CF9378
:10090000DF93EC01805E9109089710F0209719F4AD
:100910006CED7EE102C067EC7EE1CE010E94250411
:100920008C2FDF91CF910C9415211F93CF93DF93E0
:10093000CDB7DEB767970FB6F894DEBF0FBECDBF59
:100940004B8B5C8B6D8B7E8B8F8B86E09E01235F48
:100950003F4FD901E82F1D92EA95E9F795E0FE0196
:100960007396D90101900D929A95E1F7F901DE0194
:10097000179601900D928A95E1F7CE0107960E9495
:10098000E61E81113EC086E0FE013796DE0111961B
:1009900001900D928A95E1F7FF81E8856A857B8554
:1009A0006115710531F0EF3F31F481E0FF3F19F43B
:1009B00003C081E001C080E080FD23C02091E902F6
:1009C00030E0C90101968770992740911A0350E0E1
:1009D0008417950779F1F983EA837D836C8396E028
:1009E000929FD001939FB00D1124A651BD4FFE01DF
:1009F000319601900D929A95E1F78093E9020E9459
:100A0000E42416E080911A039091E9028917F9F025
:100A1000189FC001112486519D4F0E94E61E882315
:100A2000B1F080911A0390E0019687709927809326
:100A30001A03E8CF0E94A8201092E90210921A032C
:100A4000E3EEF2E086E0DF011D928A95E9F7679612
:100A50000FB6F894DEBF0FBECDBFDF91CF911F91CF
:100A60000895E0919E02F0919F02309721F001904D
:100A7000F081E02D099480E008950F931F93CF93A8
:100A8000DF93C62FD42F122FFC0182818823C9F057
:100A9000609380020E94BF229093F8018093F70137
:100AA00080E28C0F883008F05EC0C77081E001C022
:100AB000880FCA95EAF7DF91CF911F910F910C949F
:100AC000DC1E8091800268133EC08091F7019091F6
:100AD000F8010E94B022883C9105A8F500E20D0FB4
:100AE000CD17B9F080E28C0F883040F4C77081E0F8
:100AF00001C0880FCA95EAF70E94D11E083048F459
:100B000081E09D2F977001C0880F9A95EAF70E94A7
:100B1000DC1E812F0E941521193349F4FFEF27EEC7
:100B200083E0F15020408040E1F700C00000812FB9
:100B30000E94B3200830B8F4D77081E001C0880F5C
:100B4000DA95EAF70AC080E28C0F883060F4C7704B
:100B500081E001C0880FCA95EAF7DF91CF911F911C
:100B60000F910C94D11EDF91CF911F910F91089599
:100B7000882311F0FA0101C0FB0109940F931F9320
:100B8000CF93DF93CDB7DEB7C155D1090FB6F89437
:100B9000DEBF0FBECDBF8091980280FF0AC000E982
:100BA00014E09E012F5F3F4FAE014E5A5F4FB901D7
:100BB0000BC0E9EFF1E0118210821282339682E0DD
:100BC000EA34F807C1F7EBCFF801849190E0DC013B
:100BD000AA0FBB1F8A0F9B1FDC01A750BE4F8D9130
:100BE0009D91AC91FB0181939193A193BF010F5F04
:100BF0001F4FE417F50741F7539A8BB1877F9BB1DD
:100C000098606FB7F8942417350799F0F90171913E
:100C10009F01E8E09BB9000000C077FF8BB9770F18
:100C2000000000C000C000C08BB900C0EA9591F779
:100C3000EACF6FBF8FE594E00197F1F700C00000A5
:100C4000CF5ADF4F0FB6F894DEBF0FBECDBFDF9196
:100C5000CF911F910F9108950F931F93CF93DF931F
:100C600080910401882309F493C040913903509185
:100C70003A0360913B0370913C0383E090E041159F
:100C800051056105710561F08A019B01082E04C0C0
:100C900036952795179507950A94D2F700FD09C058
:100CA000019769F780911F01823011F080E001C047
:100CB00084E0E82FF0E0EE0FFF1FE952FE4FA08125
:100CC000B181E091F201EF5FE093F201F0E0AE0F4D
:100CD000BF1F8C9181113DC01092F20181E0809381
:100CE0007B02809304019091200120912101309199
:100CF000220140912301ABE6B2E080E0823051F066
:100D0000833059F0813019F09923F1F008C0222383
:100D1000D9F005C03323C1F002C04423A9F01196D5
:100D20006C91119713965C911397EC91F0E0EF01A1
:100D3000CC0FDD1FEC0FFD1FE750FE4F12967C918C
:100D400012977183608352838F5F14968430B1F65B
:100D50001FC08153873070F490E0DC01AE59BE4F64
:100D60003C91DC01A55ABE4F2C91DC01AC5ABE4F20
:100D70008C9103C084E020E030E03696AF01440F50
:100D8000551FE40FF51FE750FE4F31832083828308
:100D90008091F1018F5F843018F48093F10102C0DB
:100DA0001092F101E091F10188E0E89FF001112437
:100DB000E65BFD4F8081882309F44AC091E090935F
:100DC0007B0281508083538190E04281258130E015
:100DD000241B3109289FB001299F700D389F700D89
:100DE00011249B01220F232F221F330B420FA481BA
:100DF000678170E06A1B7109689F9001699F300DDF
:100E0000789F300D1124220F232F221F330B2A0F1E
:100E1000A181B0E0BD01660F771FA60FB71FA750D5
:100E2000BE4FE681F0E0E51BF109E89FB001E99FC4
:100E3000700DF89F700D1124CB01880F892F881F2A
:100E4000990B850F11968C9311974C9312962C93B6
:100E500080917B02882319F081E080930001109239
:100E60007B028091F0018F5F833018F48093F00152
:100E700009C01092F0018091000181110E94BE050D
:100E800010920001DF91CF911F910F9108958091F1
:100E90009802982F9695913021F08170826080930E
:100EA000980280919B02893718F088E780939B0213
:100EB0000895CF92DF92EF92FF926B017C010E9426
:100EC0004707B701A60188E090E0FF90EF90DF9020
:100ED000CF900C9439279F92AF92BF92CF92DF921E
:100EE000EF92FF920F931F93CF93DF93909198020D
:100EF00090FFB4C0922E142FC62FD82F9E7F923011
:100F000009F08FC0E42F493708F0E8E7F0E0C1119D
:100F100006C0E057FC4F2491022FE22F72C0EC2E46
:100F2000F12CE057FC4FE491FE2FCE2ED12C26E081
:100F3000D29FC00111242FEF30E0B9010E94672732
:100F40004BEA4603C001479F900D11248D0F911D60
:100F50008D0F911DB82EBB0CB80EA9014E195F095B
:100F60004C9DC0014D9D900D5C9D900D1124092F4D
:100F7000CB9DA0011124452F5527D901A41BB50BEA
:100F8000AC9DA001AD9D500DBC9D500D1124D9010B
:100F9000AB19B1095D01AE9CD001AF9CB00DBE9CF8
:100FA000B00D1124AB2FBB272A1B3B0B2C9DD0016E
:100FB0002D9DB00D3C9DB00D11242B2F623071057D
:100FC00091F048F461157105E1F061307105B9F4F3
:100FD0002E2FE52F16C06430710569F040F06630A1
:100FE000710579F00CC02E2FE92F0B2F0AC0E92FC5
:100FF0000F2F252F06C0292F0E2FEB2F02C0292FD0
:10100000052FA9EFB1E01196EC9311972C9312964E
:101010000C931297139682E0AA34B807A1F70E94A6
:10102000BE05D0939902C0939A0210939B02992017
:10103000A9F0609198027091990280919A02909122
:101040009B02DF91CF911F910F91FF90EF90DF9066
:10105000CF90BF90AF909F900C945907DF91CF91A4
:101060001F910F91FF90EF90DF90CF90BF90AF90C6
:101070009F900895E8E9F2E0438121E1421B08F4E2
:1010800040E021E0628181810C946B07E8E9F2E0A5
:10109000438121E1420F08F44FEF21E06281818119
:1010A0000C946B07E8E9F2E0628121E1621B08F42D
:1010B00060E021E0438181810C946B07E8E9F2E074
:1010C000628121E1620F08F46FEF21E043818181A9
:1010D0000C946B07E8E9F2E0818121E043816281B1
:1010E0008A500C946B07E8E9F2E0818121E04381AA
:1010F0006281865F0C946B0780919C02882319F0B3
:10110000815080939C026091980270919902809125
:101110009A0290919B020C94590780919C02833013
:1011200018F48F5F80939C026091980270919902ED
:1011300080919A0290919B020C9459078091980299
:1011400080FF19C08170826080939802662351F0FD
:10115000609198027091990280919A0290919B02FD
:101160000E94590720E040919B0260919A02809171
:1011700099020C946B07089580919802869581508E
:1011800009F481E061E00C949E0861E081E00C9438
:101190009E08E8E9F2E083E0808311828FEF82838A
:1011A00088E78383148260817181828193810C94AA
:1011B0005907CF93DF9320E3829FC0011124FC01E4
:1011C00046E0749FE00DF11D1124E60FF11DEE0FB6
:1011D000FF1FE555FB4FC591D491CE01C238D10513
:1011E00069F1B0F4C133D10509F475C048F4C932CE
:1011F000D10509F469C0CA32D10509F473C079C0B8
:10120000C533D10509F459C0C933D105B9F071C04E
:10121000C33ED10571F138F4C03ED105B1F0C23EF4
:10122000D10511F166C0C63ED105B9F1C73ED10561
:10123000C9F1C43ED10509F05CC024C020919602DA
:1012400020FD3AC121FD38C154C02091960220FDF5
:101250002DC12091970220FF34C18091960284FD18
:1012600022C183EE90E02DC12091960222FF29C178
:10127000F4CF8091960282FD1CC18091970280FD7F
:101280001BC1EBCF2091970221FF1BC180919602D9
:1012900084FD09C187EE90E014C12091960223FFDE
:1012A00010C1F4CF8091960283FD09C1809197020D
:1012B00081FFECCF84EE90E004C12091960225FFDF
:1012C00000C189E290E0FDC02091960225FFF9C09F
:1012D00085E390E0F6C02091960226FFF2C08AE2F4
:1012E00090E0EFC02091960226FFEBC081E390E0F2
:1012F000E8C0C11552E5D50778F5C11521E5D2073B
:1013000008F09BC0CF3FD10509F0B8F4C03FD1052C
:1013100008F06EC0C53AD10540F4C430D10508F0DC
:10132000D0C0219709F4CDC0BEC09E01205E310916
:101330002830310508F0B7C0C4C0C11540E5D40756
:1013400008F05DC0C11550E4D50708F054C0C115C0
:10135000D04208F4B6C0A7C0C11546E5D40720F5B1
:10136000C11555E5D50708F082C0C11584E5D80739
:1013700008F078C09E01237033279C2F9695969590
:10138000C115D34508F05EC041E050E002C0440FF3
:10139000551F2A95E2F780E2989F90011124CA0117
:1013A000822B932B9C688DC0C1155AE5D50778F424
:1013B000C11589E5D80708F063C0C11528E5D20733
:1013C00008F471C09C2F8827806F906A7AC0CE0184
:1013D00090568115904208F066C08D2F8F710E9443
:1013E000E2039E01332730628F71A901582B59C047
:1013F000CE01906566C0CE019F70906A62C0CE013A
:10140000F4E096958795FA95E1F7282F23703C2F05
:10141000337081E090E002C0880F991F3A95E2F79F
:101420009C68922B2C2F2F702695269550E2259F95
:1014300090011124822B932B44C09C2F8827816F0D
:10144000906A3FC041E050E002C0440F551F2A950A
:10145000E2F780E2989F90011124CA01822B932B1E
:101460009A682FC09C2F8827846F906A2AC08C2F7F
:101470000E94E2038F7190E0982F8827906221C02C
:101480008C2F8F700E94E2039E0194E03695279581
:101490009A95E1F72F7030E0322F22273069A901A9
:1014A000482BCA010EC080E090E00BC089E390E0B9
:1014B00008C082EE90E005C080EE90E002C086EEAB
:1014C00090E0DF91CF9108954F925F926F927F925B
:1014D0008F929F92AF92BF92EF92FF920F931F93C2
:1014E000CF93DF93CDB7DEB72A970FB6F894DEBF60
:1014F0000FBECDBFF82E50913401809030019090F6
:101500003101A0903201B090330100E040E01516A7
:101510000CF058C010E0EE24EA94E50E2E2D80E089
:1015200090E0DC01211784F034E02302F001112463
:10153000E25EFE4F4788508C618C728C842995291D
:10154000A629B7292150EECF20E732E0F9014590D6
:1015500055906590749084159505A605B70591F092
:101560002A5F3F4F63E02039360781F720E531E0FD
:10157000F901459055906590749084159505A605E0
:10158000B70541F4F90134966591749161157105BF
:1015900039F032C12A5F3F4F62E02037360741F70A
:1015A00088219921AA21BB210097A10520E4B20737
:1015B00031F00097A105B04809F41CC114C16CE2D8
:1015C00070E01AC1EE24EA94E40E10E0E7FC23C1B7
:1015D000EE2DEE0FFF0B81E090E08C0F9D1FE80FCA
:1015E000F91F0081118180911F01823009F088C0AC
:1015F0000F301105C9F158F40630110509F050C03B
:101600008EE090E00E947F048EE090E050C00431B4
:10161000110599F00B31110509F042C081E190E00C
:101620000E947F0481E190E00E94690481E190E0E2
:101630000E947F0481E190E03AC08FE090E00E9438
:101640007F048FE090E00E94690487E190E00E94AF
:101650007F0487E190E00E94690488E190E00E94A5
:101660007F0488E190E023C080912001811102C0B5
:10167000FF2079F08AE190E00E947F048AE190E007
:101680000E94690482E190E00E947F0482E190E080
:101690000EC08FE090E00E947F048FE090E007C0D2
:1016A0000115110531F0C8010E947F04C8010E9494
:1016B000690480912001811103C0FF2009F490C0CA
:1016C000F8013497EA31F10508F08AC0EA5AFF4F71
:1016D0000C948F2781E190E00E947F0481E190E0EB
:1016E0000E94690481E190E00E947F0481E190E022
:1016F00075C08CE190E00E947F048CE190E06EC0A8
:1017000080912101882321F080EE90E00E947F04E7
:1017100080912201882321F082EE90E00E947F04D4
:1017200080912301882321F083EE90E00E947F04C2
:10173000F1100FC020912001C80104974A9720F4AE
:1017400081E0211107C003C081E0213019F080E061
:1017500001C081E0982F9170B92E80FF0CC081EEFE
:1017600090E00E947F040115110541F481EE90E0A4
:101770000E9469040BC00115110541F0C8010E94C7
:101780007F04C8010E946904B110F0CF809120014C
:10179000813011F41092200180912101882341F0C1
:1017A000813011F41092210180EE90E00E946904D2
:1017B00080912201882341F0813011F4109222019E
:1017C00082EE90E00E94690480912301882341F019
:1017D000813011F41092230183EE90E00E9469049D
:1017E000EA9411E0F3CE1F5F511398CE01118FCE12
:1017F0005E2D8DCE6AE270E0E42FEE0FFF0B21E04C
:1018000030E02C0F3D1FE20FF31F718360834F5FA9
:10181000512F01E07CCE0E945204812F2A960FB6F0
:10182000F894DEBF0FBECDBFDF91CF911F910F9116
:10183000FF90EF90BF90AF909F908F907F906F90B0
:101840005F904F9008950E945204EEE1F1E01686F9
:101850001786108A118A128A138A148A158A0895A3
:101860008091F601811112C08091D800806180932F
:10187000D8008AE18A95F1F700C08091D90080FDF7
:1018800002C082E001C081E08093F60181E0909186
:10189000F601913009F080E00895CF93DF93A1EE37
:1018A000B1E045EE51E061E070E08D91E82FE29506
:1018B000EF70F0E021A18F70EB0102C0CC0FDD1FB3
:1018C0008A95E2F7CE019C2F9095922391A392A145
:1018D000892B82A34A175B0741F7DF91CF910895C7
:1018E0009F92AF92BF92CF92DF92EF92FF920F93AF
:1018F0001F93CF93DF9380911D01811103C0C4E03A
:10190000D0E002C0C0E0D0E0AE0142575D4F7A01A6
:1019100081EEC82E81E0D82E8A01AA24A394B12C8E
:1019200025E0922EF5EECF16F1E0DF0609F44AC06D
:10193000F60181916F01E82FE295EF70F0E021A1AF
:101940008F70A50102C0440F551F8A95E2F7CA01A6
:10195000922F982B91A392A18095892382A350EA7C
:101960005A95F1F7E9EEF1E020E040E050E03191E6
:10197000A32FA295AF70B0E090968C9190E03F704D
:1019800002C0959587953A95E2F780FD07C0C5019D
:10199000042E01C0880F0A94EAF702C080E090E0AC
:1019A000282B4F5F5F4F4630510509F7F8018081C2
:1019B000821719F02083909201010E944D0C0F5F55
:1019C0001F4FB0CF809101018823B1F081508093E7
:1019D0000101811103C0CF55DD4F07C08FE99FE0A2
:1019E0000197F1F700C0000007C0F70191917F0156
:1019F00099938F5F8430C9F781E0DF91CF911F9178
:101A00000F91FF90EF90DF90CF90BF90AF909F909D
:101A10000895EF92FF920F931F93CF93DF938091DE
:101A20008D02882309F47AC00E94700C80911D01F8
:101A3000811103C0C4E0D0E002C0C0E0D0E0CF55C7
:101A4000DD4F44E050E0BE0187E892E00E94952718
:101A50007C0188819981AA81BB81809387029093C0
:101A60008802A0938902B0938A0280911D0181119E
:101A700003C0C0E0D0E002C0C4E0D0E09091030118
:101A800080910201981761F082E090E00E94902618
:101A90008C01892B39F4809102018093030102C0EB
:101AA00000E010E0EF2849F48091F3019091F401F7
:101AB000892B19F480E090E002C081E090E00E9460
:101AC0009026892B49F480918B0280930201109219
:101AD000F4011092F30106C081E090E09093F401CC
:101AE0008093F3010115110531F00230110509F061
:101AF00059C0289857C0289ACF55DD4F809182024F
:101B000090918302A0918402B09185028883998389
:101B1000AA83BB835D9A1092F5013AC00E94700CB3
:101B200080911D01811103C0E4E0F0E002C0E0E01B
:101B3000F0E0EF55FD4F80E020E030E0D901AE57F6
:101B4000BD4F4C919191491381E09C932F5F3F4F82
:101B50002430310599F790918B02890F80938B0285
:101B600080911D01811103C080E090E002C084E0FB
:101B700090E0FC01EF55FD4F4091870250918802A3
:101B80006091890270918A024083518362837383DA
:101B90000E942C0681E0DF91CF911F910F91FF9061
:101BA000EF9008955D988091F5018F5F8093F50126
:101BB000863070F380911D01811103C0E0E0F0E0F8
:101BC00002C0E4E0F0E0EF55FD4F10821182128276
:101BD0001382DECF4F925F926F927F928F929F928D
:101BE000AF92BF92CF92DF92EF92FF920F931F932B
:101BF000CF93DF93CDB7DEB72A970FB6F894DEBF49
:101C00000FBECDBFFC010081D18083819481892BDF
:101C100039F01FEFD11206C091E00F3F19F403C055
:101C200091E001C090E090FD71C77F0185E0DE0189
:101C3000169601900D928A95E1F7F70122818E8127
:101C40009F81222349F00E94CB23182F682F8E8179
:101C50009F810E94452403C00E941824182F20E36E
:101C6000129FF001112436E0D39EE00DF11D1124E6
:101C7000E00FF11DEE0FFF1FE555FB4F059114918D
:101C8000F70182818823B9F00039110561F001392B
:101C9000110589F481E080931E010E94230C82E0EB
:101CA00080931F0108C0DD24D394D0921E010E94AE
:101CB000230CD0921F0181E08093040180937B026A
:101CC000F7018281882309F47FC081812081682FF8
:101CD0006B7F633061F490E00196382F330F830FF0
:101CE000382F330F822F0E945B27930F07C0982F46
:101CF000990F890F880F2A5F982F920F053E1105C3
:101D0000F1F068F4043E110571F590936F0280E6DE
:101D100080937102809370028093720255C0063ED8
:101D20001105B9F0073E1105F1F49093770280E6B2
:101D3000809379028093780280937A0245C09093D1
:101D40006B0280E680936D0280936C0280936E023A
:101D50003BC09093730280E6809375028093740277
:101D60008093760231C080916A028F5F80936A020D
:101D7000843010F010926A02A0916A02F8E0AF9FDE
:101D8000D0011124A65BBD4F11969C93119780E85A
:101D90008C93892F90E0FC01EE0FFF1F8E0F9F1F89
:101DA000FC01E750FE4F20813181428112962D9334
:101DB0003D934C93149780E616968C931697159640
:101DC0008C93159717968C9380911E01882309F4A4
:101DD000ABC10115110509F4A7C1F701D280C801F3
:101DE000845E9109049708F063C0DD2009F46BC696
:101DF0000E94BF22AC0180917E0290917F02081761
:101E00001907A1F420917C0230917D022417350737
:101E100028F4CA01821B930B9C0104C020953095C5
:101E2000240F351F91E0283C310508F090E0109315
:101E30007F0200937E0250937D0240937C02063E17
:101E40001105F1F0073E110539F1053E110561F468
:101E500080912001811104C081E08093200133C66C
:101E6000990F909320012FC680912101811104C008
:101E700081E08093210127C6990F9093210123C609
:101E800080912201811104C081E0809322011BC650
:101E9000990F9093220117C680912301811104C0EC
:101EA00081E0809323010FC6990F909323010BC605
:101EB00004301105A0F10E31110570F40450110920
:101EC000812C912C5401839404C0880C991CAA1C69
:101ED000BB1C0A95D2F732C00733110521F138F443
:101EE00003331105B1F00633110519F118C0083399
:101EF000110549F0013E110591F4812C912CA12C82
:101F000050E4B52E1BC0812C912CA12C70E1B72E72
:101F100015C0812C912CA12C60E2B62E0FC080E060
:101F20000E94640A01C1812C912CA12C98E0B92E49
:101F300005C0812C912CA12C84E0B82E0E94BF22D8
:101F40008C01240135014094509460947094DD20FC
:101F500009F48AC08091270190912801009759F4D3
:101F600081149104A10490E4B906A9F11093280109
:101F7000009327012BC08017910728F4F801E81B74
:101F8000F90BCF0104C080959095800F911F20918F
:101F90002501309126012817390790F48114910406
:101FA000A104F0E4BF0629F0109328010093270153
:101FB00004C0109228011092270180E00E94640A58
:101FC00081149104A10400E4B00629F08091240159
:101FD0008F5F8093240180912B018F5F80932B0171
:101FE0008091300190913101A0913201B091330183
:101FF000482259226A227B224092300150923101BC
:10200000609232017092330180912C0190912D01E8
:10201000A0912E01B0912F0188299929AA29BB29C5
:1020200080932C0190932D01A0932E01B0932F014A
:10203000E0913401E5300CF046C521E02E0F2093ED
:10204000340114E0E102F0011124E25EFE4F882722
:102050009927AA27B07C882A992AAA2ABB2A878A84
:10206000908EA18EB28E2FC580913001909131015A
:10207000A0913201B091330188299929AA29BB295D
:102080008093300190933101A0933201B0933301DA
:1020900081149104A10420E4B20629F08091240166
:1020A000815080932401809124018F3F11F410927C
:1020B000240180912B018823F1F08091240181116A
:1020C0001AC020912701309128012017310720F4F0
:1020D000A801421B530B05C0A90140955095400F24
:1020E000511F81E0493C510508F480E0232B09F49D
:1020F00080E00E94640A80912C0190912D01A091B2
:102100002E01B0912F01482259226A227B2240924F
:102110002C0150922D0160922E0170922F0110938C
:102120002A0100932901CFC4033F2CE5120739F49B
:1021300026E241EE60EEC7010E943D05C4C4043FA3
:102140003CE5130708F045C1083D8CE5180721F46C
:1021500027E245EE65EEEFCF093D9CE5190719F43E
:1021600028E241E0F7CF073DECE51E0721F426E227
:1021700041EE61EEE0CFF7019281992309F458C155
:10218000109280020230FCE51F0708F43BC10631C3
:102190002CE5120738F098012A5F3C4529303105BB
:1021A00008F030C10E9424239093970280939602F6
:1021B00000313CE5130709F4C3C008F041C0083002
:1021C0009CE5190709F49AC0F0F40430FCE51F07F8
:1021D00009F487C068F402303CE5130709F477C0BE
:1021E00003301C4509F0E5C080919602826076C0FC
:1021F00006309CE5190709F46EC008F07BC0809199
:10220000960288606BC00C30FCE51F0709F485C09E
:1022100068F40A303CE5130709F474C008F079C08B
:102220000E94A82080919602806858C00E309CE5DC
:10223000190709F476C008F07FC0809196028BC020
:102240000B3FFCE51F0709F44FC018F503313CE5CF
:10225000130709F47DC078F401319CE5190709F4EE
:1022600073C002311C4509F0A4C00E94A8208091CF
:1022700096028F7733C00531FCE51F0709F472C061
:1022800008F486C00A3F1C4509F093C0809197026C
:102290003EC00F3F8CE5180709F45FC058F40D3FAE
:1022A000ECE51E0709F444C008F43FC08091970292
:1022B00082602DC001302DE5120709F475C008F4C5
:1022C0005DC002301D4509F074C060E06EC08091B1
:1022D0009602816003C0809196028061809396028D
:1022E00068C08091960211C08091970282608093AD
:1022F00097025FC0809196028062F0CF8091960233
:102300008064ECCF8091960288608460E7CF816022
:10231000EECF809196028E7FE1CF809196028D7FE5
:10232000DDCF80919602877FD9CF8091970218C028
:10233000809197028D7FDBCF809196028F7ECECFEA
:10234000809196028F7DCACF809196028F7BC6CFF7
:1023500080919602877F8B7FC1CF809197028D7F7E
:102360008E7FC5CF8091960282FB222720F991E0D3
:10237000922790FB82F990FB83F9B0CF809197026E
:10238000982F909591708E7F892B90FB81F9AFCF1C
:102390000E94A8208091960287FB222720F991E0D5
:1023A000922790FB87F99ACF61E08EE090E00E943F
:1023B0002727609196021091970284E090E00E9496
:1023C0002727612F81E290E00E9427270E94A82002
:1023D0007AC3053FFCE51F0721F426E241EE62EED9
:1023E000AACE053F2CE5120720F427E245EE64EE65
:1023F000A2CE063F3CE5130709F0BDCE27E245EE2D
:1024000066EE99CE809140030631ECE51E0749F552
:102410008A7A91E009F490E090938102882311F088
:1024200065E301C069E28BED92E00E940A2316C0C9
:1024300006311C4509F0A3C080918102882309F46C
:1024400063C385E3EBEDF2E021EE32E09281891384
:1024500001C0128231962E173F07C1F70E949E23BA
:1024600032C38272F801E25CFC45E431F10508F008
:1024700060C0E059FF4F0C948F278091980280FF35
:1024800019C08E7F80939802609198027091990292
:1024900080919A0290919B020E9459079FEFE0E77A
:1024A000F2E09150E040F040E1F700C000000E94EF
:1024B000BE0509C381608093980261E0869536C0AD
:1024C0004CEB58E065EC78E02CC045EC58E06CEB48
:1024D00078E027C04AE658E063E778E022C043E7A7
:1024E00058E06AE678E01DC042E558E06EE578E025
:1024F00018C04EE558E062E578E013C04AE358E0C2
:1025000066E478E00EC046E458E06AE378E009C08B
:102510004CE758E06DE878E004C04DE858E06CE71F
:1025200078E00E94B805CFC261E081E00E949E0879
:10253000CAC201152CE5120731F00E3D1C45F9F415
:102540000E943523C0C20E94A8208FEF94E3ECE0E4
:1025500081509040E040E1F700C0000087E797E736
:1025600090930108809300089AE088E10FB6F894F0
:10257000A895809360000FBE90936000FFCFF70195
:1025800000811181992349F0C8010E94CB23D82EE4
:10259000682FC8010E94452404C0C8010E94182465
:1025A000D82EB8018D2D0E94D9088C01982EF701E4
:1025B000A580A2944FE0A422B280B11010923F03F4
:1025C00080913D03877099F0BB2089F0812F807F37
:1025D000803421F080E2800F883048F082E00E9451
:1025E000A02480913D038770DD24D3948111D12CE8
:1025F000C12EC2943FE0C3228C2D90E08C30910517
:1026000008F024C2FC01EC57FF4F0C948F27812F58
:10261000807F1F70882311F01295107FBB20B9F0C6
:10262000112309F4FEC180E2800F883010F0911070
:1026300006C080914003182B1093400305C0809181
:102640003F03182B10933F030E949E23EAC1802F63
:102650000E94B320112309F4F9C1005E10950830DF
:1026600010F0911006C0809140031823109340038E
:1026700005C080913F03182310933F030E949E23BF
:10268000E5C1812F807F1F70803211F01295107F7D
:10269000992021F0F1E09F16E1F02AC0BB2081F0E3
:1026A00080914103AA2051F001E0A01207C0182B2D
:1026B000181709F4CBC110934103C8C1812B10C076
:1026C000AA2021F021E0A21609F4C0C10E9498239B
:1026D00027C0BB2041F035E03A1508F4B7C1812F7F
:1026E0000E94DC1EB3C184E08A1508F4AFC118C093
:1026F000BB2049F0AA2099F3F701858180FF91C1A1
:102700008F708583ECCFAA2059F0093309F09BC163
:10271000FFEF17EE23E0F15010402040E1F791C1A8
:10272000812F0E94D11E92C1802FBB2019F00E94E0
:10273000222202C00E945B210E94CB228DC1812FE8
:10274000837009F069C0B11085C1902F929596955C
:102750009770990F990F802F8F70882E912CA12C34
:10276000B12C092E04C0880C991CAA1CBB1C0A940D
:10277000D2F704FF12C04FE050E060E070E004C008
:10278000440F551F661F771F9A95D2F7DB01CA01C8
:1027900080959095A095B09503C080E090E0DC0115
:1027A00016951695412F4370423019F1C8F40091E7
:1027B000420310914303209144033091450341307B
:1027C00059F088299929AA29BB29BC01CD01602388
:1027D0007123822393230AC0802A912AA22AB32A32
:1027E000BC01CD01682979298A299B290E94DA2414
:1027F00031C188299929AA29BB2900914203109146
:1028000043032091440330914503BC01CD0160276F
:10281000712782279327EACFBB2019F0812F81707F
:1028200001C08695882309F415C1902F929596953D
:102830009770990F990F802F8F70882E912CA12C53
:10284000B12C092E04C0880C991CAA1CBB1C0A942C
:10285000D2F704FF12C04FE050E060E070E004C027
:10286000440F551F661F771F9A95D2F7DB01CA01E7
:1028700080959095A095B09503C080E090E0DC0134
:1028800016951695412F43704230D9F068F50091A6
:10289000390310913A0320913B0330913C034130BE
:1028A00059F088299929AA29BB29BC01CD016023A7
:1028B0007123822393231EC0802A912AA22AB32A3D
:1028C00013C088299929AA29BB290091390310919D
:1028D0003A0320913B0330913C03BC01CD016027BA
:1028E00071278227932706C0BC01CD016829792969
:1028F0008A299B290E947124ADC01F70BB2039F02A
:10290000812F0E94B924802F0E94DC1EA3C0802F3B
:102910000E94D11E812F0E947B249CC0802F32EF09
:10292000931609F440C0391538F090EF991661F00C
:10293000E1EF9E1699F170C0F3EF9F16D9F124EFE5
:10294000921609F44EC068C0BB2019F134E03A1564
:1029500008F47CC01F7181E090E0A0E0B0E0AC0121
:10296000BD0104C0440F551F661F771F1A95D2F78B
:102970008091390390913A03A0913B03B0913C03BD
:102980008A019B01082719272A273B27C901B8017B
:1029900025C025E02A1508F459C0DCCFBB2029F05A
:1029A000812F8F712CC0BB20D9F3812F8F710E9492
:1029B0007B244CC0BB2079F01F7181E090E0A0E047
:1029C000B0E0BC01CD0104C0660F771F881F991FBE
:1029D0001A95D2F703C060E070E0CB010E94712429
:1029E00035C0BB2079F01F71812F0E94B92438E0D7
:1029F000139FC0011124836080933D03812F0E94A7
:102A0000B92424C081E00E94A02481E08A15F0F45A
:102A100082E00E94A0241AC0BB2039F0AA2009F449
:102A2000BFCF802F0E94152111C0AA2009F4BDCF6D
:102A3000893349F49FEFE7EEF3E09150E040F04036
:102A4000E1F700C00000802F0E94B32088EF8C0DBA
:102A5000843010F40E943105DD20A9F080913D03FF
:102A600080FD11C0F70112828595859585950E949C
:102A7000B924C7010E94EA0D80913D038595859593
:102A800085950E947B2485E0F701DE011196019077
:102A90000D928A95E1F789819A810E9418249A8182
:102AA00000E3809FF001112416E0919FE00DF11DDD
:102AB00011248981E80FF11DEE0FFF1FE555FB4F33
:102AC0008591949123C080913D038770F9F0F701BF
:102AD00082818823D9F082E02A960FB6F894DEBF6F
:102AE0000FBECDBFDF91CF911F910F91FF90EF905F
:102AF000DF90CF90BF90AF909F908F907F906F901E
:102B00005F904F900C94A02489E29CCC2A960FB63B
:102B1000F894DEBF0FBECDBFDF91CF911F910F9113
:102B2000FF90EF90DF90CF90BF90AF909F908F90ED
:102B30007F906F905F904F900895089508959C0145
:102B40008091CD02843001F582E08093E9009FEF0F
:102B50008091E800915085FD06C085ED8A95F1F7DA
:102B600000009111F5CF8091E80085FF0DC0C901EB
:102B700040E050E066E070E00E9489198091E80032
:102B80008E778093E80008950895CF93DF93209186
:102B9000CD02243039F521E02093E9002FEF309168
:102BA000E800215035FD06C035ED3A95F1F70000FB
:102BB0002111F5CF2091E80025FF14C0EC0140E081
:102BC00050E068E070E00E9489198091E8008E77FB
:102BD0008093E80088E0FE01A3ECB2E001900D9242
:102BE0008A95E1F7DF91CF9108952091E40030912B
:102BF000E50095E64091EC00842F817040FF23C0F2
:102C00008091E80080FD1DC08091CD02882399F05D
:102C1000853099F08091EB0085FD11C04091E40072
:102C20005091E5002417350729F3915011F09A01CE
:102C3000E1CF84E0089582E0089583E0089581E083
:102C4000089580E008954091E80042FFDDCF0895A7
:102C50008091CF0287FF11C08091E80082FD05C0FE
:102C60008091CD028111F8CF11C08091E8008B775F
:102C70000BC08091CD02882349F08091E80080FF4D
:102C8000F8CF8091E8008E778093E8000895982F20
:102C9000973068F59093E900981739F07091EC003F
:102CA0002091ED005091F00003C0242F762F50E0CA
:102CB00021FD02C09F5FECCF3091EB003E7F30934F
:102CC000EB003091ED003D7F3093ED003091EB0053
:102CD00031603093EB007093EC002093ED00509343
:102CE000F0002091EE0027FDE5CF80E008958F7081
:102CF0008093E90081E008952091D5023091D602B9
:102D00002617370748F06115710539F42091E8005E
:102D10002E772093E80001C0B901FC0120E0611585
:102D2000710579F18091CD028823F1F18530F1F1BF
:102D30008091E80083FD3CC08091E80082FD2EC0B8
:102D40008091E80080FFEBCF2091F3008091F200AA
:102D500090E0922B6115710551F08830910538F49F
:102D600021912093F100615071090196F3CF21E088
:102D7000089709F020E08091E8008E778093E800C2
:102D8000CECF2111CFCF0AC08091CD02882361F030
:102D9000853061F08091E80083FD0AC08091E800F1
:102DA00082FFF2CF80E0089582E0089583E00895E5
:102DB00081E00895CF93DF93CDB7DEB760970FB66C
:102DC000F894DEBF0FBECDBF84B7877F84BF0FB638
:102DD000F894A895809160008861809360001092BB
:102DE00060000FBE90E080E80FB6F8948093610019
:102DF000909361000FBE85B7806885BF85B78068F6
:102E000085BF0E94CE1C0E94ED1C8091E200846070
:102E10008093E20078948091CD028823A1F01091F4
:102E2000E9001F709091EC00892F817090FD80E87F
:102E3000182B1092E9008091E80083FD0E94B519DB
:102E40001F701093E90082E084BD93E095BD9AEF76
:102E500097BD80936E000E94300C80931D010E94EC
:102E6000300C63E070E0882329F085E091E00E9457
:102E7000AE2504C085E091E00E94B72578940E94B9
:102E80004D0CA9EEB1E041E050E08D91E82FE295C4
:102E9000EF70F0E021A18F70BA0102C0660F771FBA
:102EA0008A95E2F7CB01962F9095922391A392A158
:102EB000892B82A371E0AF3EB70739F7209A559A64
:102EC000289A5D9AAEE8B2E049EAE42E42E0F42E98
:102ED000E1EAF2E011921D9282E0E93AF807D1F7B7
:102EE0000E94300C80938D0280E090E00E942127A8
:102EF0008C3E9E4F11F00E94352311E010931E016D
:102F00000E94230C10931F0180E090E00E94212773
:102F10008C3E9E4F11F00E94352382E090E00E948B
:102F200013278093B7020E942423909397028093E3
:102F3000960283E090E00E941327682F70E080E003
:102F400090E00E94DA2480919D02811134C080E0DB
:102F500090E00E9421278C3E9E4F21F00E94352355
:102F60000E94C90888E090E00E941B2760939802A5
:102F70007093990280939A0290939B026E7F71F4F2
:102F80000E94C90888E090E00E941B276093980285
:102F90007093990280939A0290939B020E94470734
:102FA0008091980280FF04C060E086950E949E0890
:102FB00081E080939D0289E491E090939F02809349
:102FC0009E02BB24B394AA24AA9480E1982E92E195
:102FD000892E28E1C22ED12C30E4732E8091CD02AF
:102FE000853009F034C08091CD02843009F110920F
:102FF000A0020FB6F894A895C09260000FBE709220
:10300000600083B7817F846083BF83B7816083BFA3
:103010007894889583B78E7F83BF0FB6F894A89570
:1030200080916000886180936000109260000FBE04
:103030008091CC02882391F20E94090DE1EAF2E02E
:103040008191811148C1EE16FF06D1F7C7CF0E94CA
:10305000090DE8EBF2E0A1EAB2E000E010E0302F69
:103060002D919191922721F180E066246394462D61
:103070004923D1F08F833887262181E009F480E04D
:1030800089870E94BF228160782F9B878A874F8122
:10309000588569858B850E949504F801E854FD4F99
:1030A00080816826608218C08F5F660C8630F9F6D2
:1030B0000F5F1F4F0830110591F6AC86AD861E8656
:1030C0000E94BF228160782F988B8F874C855D8509
:1030D0006E8588890E94950486E0E0EBF2E0DE01CF
:1030E000119601900D928A95E1F78091B2028111BB
:1030F00005C08091B302882309F46CC08091AE02B0
:103100009091AF020E94B0229C019091AD02992350
:1031100009F4F5C02333310508F45CC09F3F19F072
:103120009F5F9093AD021092B4021092B50280910D
:10313000B202181624F40E9402228093B2028091F7
:10314000B20287FF05C00E94022281958093B202DD
:103150008091B302181624F40E9402228093B302D5
:103160008091B30287FF05C00E940222819580935F
:10317000B3023091B2023323D1F02091B302222363
:10318000B1F065EB3603C0011124992319F0909337
:10319000B20202C0B092B20275EB2703C001112443
:1031A000992319F09093B30202C0B092B3020E9427
:1031B000CB228091AB029091AC029093AF028093AE
:1031C000AE0286E0FE013196A0EBB2E001900D92D6
:1031D0008A95E1F78091B402811105C08091B50212
:1031E000882309F46CC08091A9029091AA020E94E0
:1031F000B0229C019091AD02992309F485C0253637
:10320000310508F45CC09F3F19F09F5F9093AD02B9
:103210001092B2021092B3028091B402181624F4F4
:103220000E94E0218093B4028091B40287FF05C020
:103230000E94E02181958093B4028091B502181616
:1032400024F40E94E0218093B5028091B50287FFAB
:1032500005C00E94E02181958093B5023091B402AF
:103260003323D1F02091B5022223B1F045EB340392
:10327000C0011124992319F09093B40202C0B092B6
:10328000B40265EB2603C0011124992319F0909331
:10329000B50202C0B092B5020E94CB228091AB026F
:1032A0009091AC029093AA028093A90286E0FE015D
:1032B0003196A0EBB2E001900D928A95E1F70E9461
:1032C00031059091B602891709F488CE0E94310524
:1032D0008093B60283CE99BC89BC09B400FEFDCFB1
:1032E0008091D8008F7D8093D8008091E00082602B
:1032F0008093E0008091E00081FDFCCF6FCE2D3205
:10330000314008F00DCF66CF2D32314008F07DCF2F
:10331000D6CFEF92FF920F931F93CF93DF937C0151
:103320008B010E94F515811119C0E70101151105E6
:10333000A1F08091E80085FD0AC08091E8008E77B9
:103340008093E8000E94F515882381F307C08991D6
:103350008093F10001501109E9CF80E0DF91CF9116
:103360001F910F91FF90EF9008951F93CF93DF93DC
:10337000CDB7DEB7AA970FB6F894DEBF0FBECDBFAC
:10338000EFECF2E08091F100819322E0E73DF2075B
:10339000C9F78091D002833009F460C030F48130E5
:1033A00071F0823009F49AC0B1C08A3009F486C045
:1033B0008B3009F46BC0893009F0A8C020C080911F
:1033C000CF02813A09F0A2C08091E800877F809304
:1033D000E8008091D3029091D402892B21F468E017
:1033E00083EC92E003C060E080E090E070E00E9437
:1033F0007C168091E8008B778093E80087C08091ED
:10340000CF02813209F082C08091D3029091D40220
:10341000029708F07BC08091E800877F8093E800E6
:103420008091E80082FD05C08091CD028111F8CF26
:103430006DC02091F3008091F20090E0922B0297F2
:1034400029F48091F1008B7F813021F48091F1008B
:103450008093C2028091E8008B7754C08091CF02A4
:10346000813A09F053C08091D3029091D402892B04
:1034700009F04CC08091E800877F8093E80080913C
:10348000E80080FFFCCF8091530137C08091CF02CC
:103490008132E1F58091D3029091D402892BB1F56C
:1034A0008091E800877F8093E8000E942816809131
:1034B000D102809353010E94A82028C08091CF029E
:1034C000813221F58091E800877F8093E8000E9497
:1034D00028168091D2028093C10218C08091CF0239
:1034E000813AA1F48091E800877F8093E800809181
:1034F000E80080FFFCCF8091C1028093F1008091B1
:10350000E8008E778093E8000E9428168091E800FA
:1035100083FFD8C18091CF029091D002492F50E013
:103520004A30510508F0CEC1FA01E057FF4F0C9424
:103530008F27803821F0823809F0C4C108C08091FB
:10354000CB029091CC02992389F082600FC08091C8
:10355000D3028F70873008F0B5C18093E900809165
:10356000EB0085FB882780F91092E9009091E80034
:10357000977F9093E8008093F1001092F10071C161
:10358000282F2D7F09F09EC1882319F0823061F029
:1035900099C18091D102813009F094C1933009F032
:1035A00080E08093CC022EC08091D10281112AC08C
:1035B0008091D3028F702FEF280F263008F082C140
:1035C0008093E9002091EB0020FF1CC0933021F490
:1035D0008091EB00806214C09091EB009061909319
:1035E000EB0021E030E0A90102C0440F551F8A958D
:1035F000E2F74093EA001092EA008091EB008860C5
:103600008093EB001092E9008091E800877F2CC145
:10361000811158C11091D1021F778091E300807809
:10362000812B8093E3008091E800877F8093E800FE
:103630000E9428168091E80080FFFCCF8091E30073
:1036400080688093E300111102C082E001C083E032
:103650008093CD0237C18058823008F033C1809109
:10366000D1029091D2028C3D53E0950779F583E029
:103670008A838AE289834FB7F894DE01139620E0AB
:103680003EE051E2E32FF0E050935700E49120FF39
:1036900003C0E295EF703F5FEF708E2F90E0EA304D
:1036A00010F0C79601C0C0968D939D932F5F243173
:1036B00049F74FBF8091E800877F8093E8006AE276
:1036C00070E0CE0101960E947C16BAC04091D302F0
:1036D0005091D402292F332723303105B1F068F4FB
:1036E0002130310509F4FDC02230310509F0EAC06E
:1036F0008BE390E0EAEBF6E050C02132310581F136
:103700002232310509F439C0DDC099278130910595
:10371000B9F070F082309105D9F0039709F0D2C06A
:10372000E7E0F7E0E4918E2F90E0E7E0F7E032C0C9
:10373000EDE2F7E0E4918E2F90E0EDE2F7E02AC0B1
:10374000EBE1F7E0E4918E2F90E0EBE1F7E022C0AF
:10375000EDE0F7E0E4918E2F90E0EDE0F7E01AC0A5
:103760004115510509F4C2C04130510509F0AAC004
:1037700089E090E0E5EEF6E010C04115510509F44E
:10378000BAC04130510509F09DC08FE490E0EBE2F2
:10379000F6E003C0009709F495C02091E800277F68
:1037A0002093E8002091D5023091D602821793072A
:1037B00008F49C0140E02115310589F18091CD028A
:1037C000882309F43DC08530D9F18091E80083FD5C
:1037D00037C08091E80082FD2FC08091E80080FF13
:1037E000EACF4091F3008091F20090E0942B2115F4
:1037F000310559F08830910540F444914093F1002F
:103800003196215031090196F2CF41E0089709F035
:1038100040E08091E8008E778093E800CCCF4111A2
:10382000CDCF0AC08091CD02882351F0853041F080
:103830008091E80083FD04C08091E80082FFF2CF10
:103840008091E8008B778093E8003CC08038D1F508
:103850008091E800877F8093E8008091CE0280937A
:10386000F1008091E8008E778093E8000E9428168E
:1038700029C0811127C08091D1029091D20299274D
:10388000029704F58091E800877F8093E80010910B
:10389000D1021093CE020E942816111106C0809109
:1038A000E30087FD02C081E001C084E08093CD0287
:1038B00042E061EC81E00E94471642E261EC82E066
:1038C0000E9447168091E80083FF1AC08091E800AB
:1038D000877F8093E8008091EB0080628093EB000B
:1038E0000FC082E190E0E5EFF6E057CF89E090E08D
:1038F000ECECF6E052CF80E490E0EAE7F6E04DCF62
:10390000AA960FB6F894DEBF0FBECDBFDF91CF9160
:103910001F9108951F920F920FB60F9211242F93AB
:103920003F934F935F936F937F938F939F93AF9347
:10393000BF93CF93DF93EF93FF93C091E900CF70D4
:103940008091EC00D82FD17080FDD0E81092E90072
:103950008091F000877F8093F00078940E94B519E1
:103960001092E9008091F00088608093F000CD2BE8
:10397000CF70C093E900FF91EF91DF91CF91BF919C
:10398000AF919F918F917F916F915F914F913F91F7
:103990002F910F900FBE0F901F901895E8EDF0E05B
:1039A00080818E7F80831092E2001092DA00109264
:1039B000E100A0EEB0E08C9181608C9380818F77E4
:1039C000808319BCA7EDB0E08C918E7F8C938081B1
:1039D0008F7E80831092C0020895CF92DF92EF9283
:1039E000FF920F931F93CF93DF93C8EDD0E08881B0
:1039F0008F7E8883E7EDF0E080818160808384E0C2
:103A000082BF81E08093C00288818E7F888302EE2E
:103A100010E0F80110821092DA0081EEC82ED12C4D
:103A2000F601108288818F778883888180688883F7
:103A300088818F7D888319BC1092CD021092CE02AE
:103A40001092CC021092CB0290EEE92EF12CF701ED
:103A500080818B7F808388818160888342E060E001
:103A600080E00E944716F60180818E7F8083F801F6
:103A7000808181608083808188608083F70180817C
:103A80008E7F8083888180618883DF91CF911F91B1
:103A90000F91FF90EF90DF90CF9008951F920F92BB
:103AA0000FB60F9211242F933F934F935F936F9311
:103AB0007F938F939F93AF93BF93EF93FF938091E7
:103AC000E10082FF09C08091E20082FF05C0809181
:103AD000E1008B7F8093E1008091DA0080FF2AC0B3
:103AE0008091D80080FF26C08091DA008E7F80937D
:103AF000DA008091D90080FF18C080E189BD82E1A1
:103B000089BD09B400FEFDCF81E08093CD02809194
:103B1000C00281110FC00E94CE1C0E94ED1C80913A
:103B2000E20084608093E20005C019BC1092CD02CF
:103B30001092C0028091E10080FF17C08091E200E6
:103B400080FF13C08091E2008E7F8093E20080911D
:103B5000E20080618093E2008091D80080628093CF
:103B6000D80019BC85E08093CD028091E10084FFEC
:103B700032C08091E20084FF2EC080E189BD82E1E5
:103B800089BD09B400FEFDCF8091D8008F7D809360
:103B9000D8008091E1008F7E8093E1008091E20067
:103BA0008F7E8093E2008091E20081608093E2004A
:103BB0008091CE02882311F084E007C08091E30059
:103BC00087FD02C081E001C083E08093CD020E94A6
:103BD000A8200E9431058091E10083FF27C08091D9
:103BE000E20083FF23C08091E100877F8093E100A2
:103BF00082E08093CD021092CE028091E1008E7F10
:103C00008093E1008091E2008E7F8093E2008091BA
:103C1000E20080618093E20042E060E080E00E9488
:103C200047168091F00088608093F000FF91EF913B
:103C3000BF91AF919F918F917F916F915F914F91C4
:103C40003F912F910F900FBE0F901F9018950F93DB
:103C50001F93CF93DF938091E80282958F7009F0D4
:103C60005DC08091E502882309F458C080911A0351
:103C70001091E9026091E3027091E402C091E602C2
:103C8000D091E70291E06F3F09F090E0292F06E024
:103C9000811709F443C0209721F07F3F21F030E0E5
:103CA00003C031E001C0322F90E030FD34C0089FE6
:103CB000F001099FF00D1124DF01A651BD4F1196AF
:103CC0003C911197371327C03C91361324C01296AC
:103CD0003C91129731111FC013964D915C9114972E
:103CE0004C1B5D0B483C5105B0F48091E8028F708D
:103CF00080618093E802E151FD4F80818F70806187
:103D0000808383EE92E00E94EA0DDF91CF911F91B4
:103D10000F910C94E42401968770BACFDF91CF9174
:103D20001F910F9108950E940D24292F2F70E92FC4
:103D3000E295EF704E2F50E0FA013297EE30F10528
:103D4000B8F4E656FF4F0C948F27803F99F018F493
:103D5000883E70F40FC0843F59F40CC0883E50F088
:103D6000813F31F407C0822F869586958695089508
:103D700080E0089581E00895882341F08095909136
:103D80003F03892380933F030C949E230895882347
:103D900039F090913F03892B80933F030C949E232D
:103DA0000895882341F08095909140038923809362
:103DB00040030C949E230895882339F0909140038A
:103DC000892B809340030C949E2308959F92AF9279
:103DD000BF92CF92DF92EF92FF920F931F93CF93F8
:103DE000DF93CDB7DEB761970FB6F894DEBF0FBE95
:103DF000CDBF8C0185E0F801DE011D9601900D928A
:103E00008A95E1F7F80190818181E2803091E302A7
:103E10006091E4024091E6025091E702411551059C
:103E200031F06F3F31F421E03F3F19F403C021E04E
:103E300001C020E0F22FF1709F2E20FD23C1F80178
:103E4000C380D48023EEA22E22E0B22EF090E502B1
:103E5000F601E41BF50BFF2009F4CEC02091E80227
:103E6000E83CF10508F099C0422F407F09F051C0AD
:103E7000681311C039130FC0FE2CE1100CC02F7055
:103E800020612093E802C5010E94EA0D8091E802BA
:103E9000F801858337C1CD2831F08F3F31F421E01F
:103EA0009F3F19F403C021E001C020E020FD03C0C2
:103EB00021E02E2502C020E030E0F22FF170FF2E2D
:103EC00020FF1DC020911A034091E90256E02417FB
:103ED00009F4F6C030E0529FF001539FF00D112419
:103EE000E651FD4F6181861306C06081961303C0C1
:103EF0006281E61204C02F5F3F4F2770E8CFFE2C8F
:103F0000EE2009F4FFC08091E80281608093E8020E
:103F100050C0681307C0391305C0E11003C0F80191
:103F200025838DC09D878E878D859E850E94931EDB
:103F3000882369F1EE2059F12091E802822F8295C1
:103F40008F7090E0029774F08091E3029091E40208
:103F500098878F831986DB86CA862C87CE010796C1
:103F60000E94EA0D86E0F801A3EEB2E001900D9206
:103F70008A95E1F70E94271E0DC06817E1F09D8722
:103F80008E878D859E850E94931E81111EC0C8015B
:103F90000E94EA0DFF24F394B5C0422F407F69F7D9
:103FA00083EE92E00E94EA0D86E0F50111928A9577
:103FB000E9F7F12CA7C03913E2CFE110E0CFF80107
:103FC0002583C8010E94EA0D57C0EE2001F320911D
:103FD000E802822F82958F7090E002971CF2809108
:103FE000E3029091E4029A8389831B82DD82CC8272
:103FF0002E83CE010196B4CFE83CF105E8F5FE2C06
:10400000EE2029F2681327C0391325C02091E80259
:1040100020FD18C0822F82958F70482F50E04115E7
:10402000510581F0F80125834F30510541F08F5F34
:10403000982F9295907F822F8F70892B8583C8014E
:104040000E94EA0D86E0F801A3EEB2E001900D9225
:104050008A95E1F757C09D878E878D859E850E9442
:10406000931E81117FCF8091E80281608093E802E6
:10407000C8010E94EA0D46C086E0F50111928A95BA
:10408000E9F740C0EE2009F482CF9D878E878D85A9
:104090009E850E94931EF82E882309F478CF86E02F
:1040A000F801A3EEB2E001900D928A95E1F78091BC
:1040B000E3029091E4020E940D240E94271E22C078
:1040C0009D878E878D859E850E940D24292F2295A0
:1040D0002F70223028F49F7039F0811105C00BC079
:1040E000243028F49F7049F4805E883020F0C801A5
:1040F0000E94EA0D9F2CF92C05C0F8019581907F54
:1041000099F7F9CF8F2D61960FB6F894DEBF0FBEE9
:10411000CDBFDF91CF911F910F91FF90EF90DF9076
:10412000CF90BF90AF909F90089510923F03109250
:104130003E030E949E23E0EBF2E086E0DF011D9249
:104140008A95E9F71092AD0210924A030C94CB22A3
:104150001092400386E0EDEDF2E0DF011D928A95BA
:10416000E9F70C949520882309F45EC09CEF980F22
:10417000913A60F4EBEDF2E09281891301C0128272
:10418000319642E0E13EF407B9F714C090E2980F8F
:10419000983090F4877021E030E0A90102C0440F0C
:1041A000551F8A95E2F7CA018095909140038923B3
:1041B000809340030C949E239BE5980F9330A0F4CA
:1041C0008091D7029091D802892B71F11092D80278
:1041D0001092D702E0919E02F0919F02309721F158
:1041E0000680F781E02D17C098E5980F9731B0F45D
:1041F0008091D9029091DA02892BB1F01092DA0203
:104200001092D902E0919E02F0919F02309761F0E6
:104210000084F185E02D80E090E00994803F20F05B
:104220000E945B210C94CB220895CF938823F1F157
:10423000C82F8CEF8C0F813AF0F4EDEDF2E0819114
:10424000C81729F082E0E33EF807C9F70EC0EBED8E
:10425000F2E081EE92E02281C21301C01282319617
:104260008E179F07C1F70E949E236C2F8BED92E063
:104270000E940A2310C080E28C0F883078F4C77047
:1042800081E090E001C0880FCA95EAF79091400361
:10429000892B80934003CF910C949E23C03F30F034
:1042A0008C2F0E942222CF910C94CB22CF91089583
:1042B0008091C2020895803F39F48091B30287FF54
:1042C0006CC01092B30269C0813F29F48091B3029F
:1042D0001816BCF362C09091B202823F29F497FF96
:1042E0005CC01092B20259C0833F19F41916CCF386
:1042F00054C0893F41F48091B40218160CF04DC0AF
:104300001092B4024AC08A3F29F48091B40287FF18
:1043100044C0F6CF8B3F39F48091B50287FF3DC092
:104320001092B5023AC08C3F29F48091B50218165C
:10433000BCF333C0843F21F48091B1028E7F17C05B
:10434000853F21F48091B1028D7F11C0863F21F419
:104350008091B1028B7F0BC0873F21F48091B10225
:10436000877F05C0883F31F48091B1028F7E8093B2
:10437000B10213C08D3F21F480914A038E7F0BC0A0
:104380008E3F21F480914A038D7F05C08F3F29F431
:1043900080914A038B7F80934A038091B2028111FE
:1043A0000EC08091B30281110AC08091B4028111C4
:1043B00006C08091B502811102C01092AD0208952D
:1043C00080914A0380FD16C081FD16C082FD18C091
:1043D0008091AD02882391F0883290F428E0829F8A
:1043E000C001112468E270E00E947B27862F672BB2
:1043F00029F007C082E0089584E0089581E00895DF
:1044000088E0089580914A0380FD14C081FD14C0A6
:1044100082FD16C08091AD02882381F0843180F442
:1044200022E3829FC001112464E170E00E947B2797
:10443000862F08958CE0089589E1089585E0089518
:1044400082E30895803F21F40E940222819504C0F6
:10445000813F29F40E9402228093B3020895823F93
:1044600021F40E940222819504C0833F29F40E9416
:1044700002228093B2020895893F19F40E94E0213C
:1044800005C08A3F31F40E94E02181958093B402F7
:1044900008958B3F21F40E94E021819504C08C3F58
:1044A00029F40E94E0218093B5020895843F21F40D
:1044B0008091B102816017C0853F21F48091B102E3
:1044C000826011C0863F21F48091B10284600BC0EC
:1044D000873F21F48091B102886005C0883F31F4A4
:1044E0008091B10280618093B10208958D3F21F4E3
:1044F00080914A0381600BC08E3F21F480914A0372
:10450000826005C08F3F29F480914A0384608093C4
:104510004A03089578941F920F920FB60F921124B8
:104520008F939F93AF93BF938091460390914703DE
:10453000A0914803B09149030196A11DB11D80933C
:10454000460390934703A0934803B0934903BF9158
:10455000AF919F918F910F900FBE0F901F90189564
:104560009C014FB7F8948091460390914703A09126
:104570004803B09149034FBF821B930B08952FB797
:10458000F8948091460390914703A0914803B0911D
:1045900049032FBF0895E0919E02F0919F0230974A
:1045A00049F082E08093B0020480F581E02D80EB39
:1045B00092E009950E94BF229093AC028093AB02D7
:1045C00008951F920F920FB60F9211248F939F930D
:1045D000AF93BF938091A002811113C080914603D5
:1045E00090914703A0914803B09149034196A11DC2
:1045F000B11D8093460390934703A0934803B09363
:104600004903BF91AF919F918F910F900FBE0F9073
:104610001F9018959C01FC0132969FEF80E041911C
:10462000461789F09F3F19F4411101C0982F8F5F01
:104630008630A9F79F3F39F0F901E90FF11D97FD89
:10464000FA95628308950895CF9384E090E00E94E4
:104650001327C82F81E290E00E9413272C2F30E00F
:10466000A901582BCA01CF9108956CEE7EEF80E02E
:1046700090E00E94452760E082E090E00E942727BA
:1046800060E083E090E00E9427271092420310929E
:104690004303109244031092450360E084E090E0ED
:1046A0000E94272760E081E290E00E94272760E0D7
:1046B00085E090E00E94272760E086E090E00E947D
:1046C00027276FEF87E090E00E94272740E050E027
:1046D000BA0188E090E00E94392760E08DE090E028
:1046E0000E94272740E050E0BA0188E190E00E9454
:1046F000392760E087E190E00E94272740E050E002
:10470000BA018CE190E00E94392760E080E290E0FD
:104710000E94272740E050E0BA018FE090E00E941D
:10472000392740E050E0BA0183E190E00C9439274A
:1047300080914103811110924103089590914003AB
:1047400080913F03892B20913E03982F922B9093C9
:10475000DB0280914103882389F0892B8093DB025F
:10476000EDEDF2E097E080E0915029F021912223D5
:10477000D9F38F5FF9CF81110E949823E0919E02B7
:10478000F0919F02309731F00280F381E02D8BEDA4
:1047900092E009940895BF92CF92DF92EF92FF9238
:1047A0000F931F93CF93DF938C01C0903903D09068
:1047B0003A03E0903B03F0903C03809142039091D8
:1047C0004303A0914403B0914503C82AD92AEA2A99
:1047D000FB2ACFE1D0E0D701C6010C2E04C0B6956C
:1047E000A795979587950A94D2F780FD04C02197E5
:1047F00090F7B12C07C0BC2EB8018C2F0E94D908AD
:104800000197A9F38B2DDF91CF911F910F91FF900D
:10481000EF90DF90CF90BF900895CF93DF93EC019E
:104820000E94CB23BE010E94D908DF91CF91089549
:10483000292F220F920F990F890F682F6695669581
:104840006695982F977085E0689FB001112440E02D
:1048500050E080E0FB01E40FF51FE55EFC4F208196
:1048600030E0092E02C0369527950A94E2F72170B0
:104870003327042E01C0220F0A94EAF7822B4F5FE0
:104880005F4F4530510531F70895292F220F920FC0
:10489000990F890FE82FE695E695E695877051E028
:1048A00001C0550F8A95EAF785E0E89FF0011124D1
:1048B000E55EFC4F20E030E070E04081CB01022E4D
:1048C00002C0969587950A94E2F7817081958427B6
:1048D0008523842781932F5F3F4F2530310569F76A
:1048E00008956093390370933A0380933B03909348
:1048F0003C030C9495200F931F9341E050E060E03F
:1049000070E004C0440F551F661F771F8A95D2F7C9
:1049100040955095609570958091390390913A0338
:10492000A0913B03B0913C038A019B01082319230A
:104930002A233B23C901B8011F910F910C947124C4
:1049400020913D038095822380933D03982F97709B
:1049500079F430E0482F082E000C550B241735074A
:1049600039F08595859585950E947B2410923D03AD
:1049700008950F931F9341E050E060E070E004C0A1
:10498000440F551F661F771F8A95D2F78091390310
:1049900090913A03A0913B03B0913C038A019B01A3
:1049A000082B192B2A2B3B2BC901B8011F910F9102
:1049B0000C947124609342037093430380934403E7
:1049C000909345030C94952080911A039091E902ED
:1049D000891719F08F5F8770FBCF08951F920F9290
:1049E0000FB60F9211248F939F93EF93FF938091B3
:1049F000B900887F803869F038F48823C9F180369F
:104A0000C9F510924B0336C0883A09F1883BF9F09A
:104A100031C080914B03811111C08091BB00809304
:104A20004C0380914C03803120F010924C0380E0C5
:104A300001C081E091E090934B031DC0E0914C03D5
:104A4000F0E08091BB00E05BFC4F808308C0E09108
:104A50004C03F0E0E05BFC4F80818093BB008091D1
:104A60004C0390E001968F70992780934C0302C00D
:104A70001092BC0081E09091BC008295880F880F55
:104A8000807C9568892B8093BC00FF91EF919F916A
:104A90008F910F900FBE0F901F9018958EE14A9B3B
:104AA00002C08150E1F74A9BFECF08955A9880E2F8
:104AB0008A95F1F75A9A0895FC012AE02A95F1F7B0
:104AC00090E020E080E031E0261779F040E14A955F
:104AD000F1F7880F4A9B02C08160932700C0000055
:104AE00040E14A95F1F72F5FEFCF20E12A95F1F7EA
:104AF00029B100C0000030E13A95F1F722FB2227EE
:104B000020F992272081920F90830895EF92FF92CF
:104B10000F931F93CF93DF931F92CDB7DEB7198208
:104B20008C017C01E60EF11C0E151F0559F00E9448
:104B30004E2568E0CE0101960E945C25F801819324
:104B40008F01F2CF81E09981911180E00F90DF9188
:104B5000CF911F910F91FF90EF90089590934F0385
:104B600080934E0360934D03529A5A9A08959093FE
:104B70004F0380934E0360934D0352985A9AEA9ADA
:104B8000E9E6F0E080818F7C80830895615091E0B8
:104B900001C0990F6A95EAF720E031E0992361F0AE
:104BA000492F482319F05A9A232701C05A9840E206
:104BB0004A95F1F79695F2CF222311F05A9A01C047
:104BC0005A9880E28A95F1F75A980895FF920F93C8
:104BD0001F93CF93DF93EC018C01060F111DC017BB
:104BE000D10741F0F9900E94562568E08F2D0E9470
:104BF000C625F5CFDF91CF911F910F91FF900895BA
:104C00001F920F920FB60F9211240F931F932F93A1
:104C10003F934F935F936F937F938F939F93AF9344
:104C2000BF93EF93FF93CF93DF931F92CDB7DEB780
:104C300019820E944E2567E0CE0101960E945C25F4
:104C4000382F369536953695932F96959570232F58
:104C50002570920F292F2370969596958770920F45
:104C6000891348C08981811145C080914D03831704
:104C700008F440C080E18A95F1F75A9A529AA2E06E
:104C8000AA95F1F700C000914E0310914F03B8E0D0
:104C90003B9F000D111D11245A98F8016581662370
:104CA00021F0868197810E94E6250E945625F0E139
:104CB000FA95F1F75A9852985A9A80E18A95F1F745
:104CC000D80112966C911297662369F013968D9114
:104CD0009C9114970E948625D801ED91FC91811139
:104CE00005C082E004C0D801ED91FC9188E080838A
:104CF0000E944E250F90DF91CF91FF91EF91BF91D0
:104D0000AF919F918F917F916F915F914F913F9163
:104D10002F911F910F910F900FBE0F901F9018951C
:104D20000F931F93CF93DF9320914D0330E028170B
:104D300039070CF471C09C0193E0220F331F9A9540
:104D4000E1F7C0914E03D0914F03C20FD31FF894E7
:104D5000529A5A9845E04A95F1F70000982F969597
:104D600095708570890F982F937086958695890F19
:104D70008901082B0E94562584E08A95F1F700C02E
:104D800067E0802F0E94C62540E14A95F1F75298CE
:104D90005A9A4A9902C000C0FCCF87E090E04A9B33
:104DA0000EC0019751F4529A5A9AE881F98181E034
:104DB0008083789481E090E031C000C0F0CF6D81B5
:104DC000662381F08E819F810E94862581110AC011
:104DD000529A5A9AE881F98182E08083789482E03D
:104DE00090E01CC00E944E2580E28A95F1F75A9807
:104DF000529A40E14A95F1F76A81662321F08B814E
:104E00009C810E94E6250E945625E881F981108246
:104E1000789480E090E002C084E090E0DF91CF9150
:104E20001F910F910895F999FECF92BD81BDF89A17
:104E3000992780B50895A6E1B0E044E050E00C94D5
:104E40004D27A8E1B0E042E050E00C944D27262F1A
:104E5000F999FECF92BD81BDF89A019700B4021670
:104E600039F01FBA20BD0FB6F894FA9AF99A0FBE1E
:104E700008950396272F0E9428270E942727252F71
:104E80000E942827242F0C9428270196272F0E9460
:104E900028270C942727DC01CB01FC01F999FECFD0
:104EA00006C0F2BDE1BDF89A319600B40D924150B2
:104EB0005040B8F70895991B79E004C0991F9617E0
:104EC00008F0961B881F7A95C9F780950895AA1B4C
:104ED000BB1B51E107C0AA1FBB1FA617B70710F0E5
:104EE000A61BB70B881F991F5A95A9F78095909517
:104EF000BC01CD01089597FB072E16F4009407D04E
:104F000077FD09D00E94672707FC05D03EF49095F5
:104F100081959F4F0895709561957F4F0895EE0F8D
:104F2000FF1F0590F491E02D0994FB01DC0104C002
:104F30008D910190801921F441505040C8F7881B91
:084F4000990B0895F894FFCFCE
:104F48000105FFFF018C02000000018B028C0204A6
:104F58008702018B02860200000004820201000021
:104F68000000000000210000000000000000000018
:104F78000000000000000000000000000000000029
:104F88000000000000000000005821C5159F159D75
:104F9800159E150120002000200020000000202080
:104FA80020200020200000202031303035303031E2
:104FB80035353535303430303030303636360031EE
:104FC80030303130303130313131303430303030D0
:104FD80030363736003130353535303130353535C6
:104FE80030343535353530373636003233333333B0
:104FF8003331333333333334353535343537373666
:1050080000313030343030313434343430353034A9
:105018003030303636360069017F019501AB01C169
:1050280001946697C600000000F4F5F6F7313300E6
:00000001FF
