:100000000C947C030C94C3030C94C3030C944623FC
:100010000C94C3030C94C3030C94C3030C94C30348
:100020000C94C3030C94C3030C9436160C94552102
:100030000C940E1A0C94C3030C94C3030C94C303C6
:100040000C94C3030C94C3030C94C3030C94C30318
:100050000C94C3030C94DC190C94C3030C94C303D9
:100060000C94C3030C94C3030C94C3030C94C303F8
:100070000C94C3030C94C3030C94C3030C94C303E8
:100080000C94C3030C94C3030C94C3030C94C303D8
:100090000C94C3030C94C3030C94C3030C94C303C8
:1000A0000C94C3030C94C3030C94C303160D250DC9
:1000B000250D250D160D9C0D250D250D160D9C0DE0
:1000C000250D9C0D250D250D160D9C0D9C0D250D4A
:1000D000250D250D160D9C0D9C0D9C0D9C0D250DC3
:1000E000B612B612F012F012CA14CA14CA14CA1404
:1000F00043132114321432140D1535153A153F15DA
:10010000441549154E15531558155D156215691599
:10011000C711C711C711C711C711C711C711C7111F
:100120007D1FA41F2D21A41F2D21EC1F0F202D2189
:10013000F7200A21D521D521E821E821DE21E82177
:10014000E821E821D521D521E321E821E821E32197
:10015000010000400F00020000400E0004000040BB
:100160002E0008000040110010000040190020007F
:1001700000402800400000400A00800000400000CD
:1001800000010040000000020040000000040040A8
:1001900000000008004000000010004000000020A7
:1001A00000400000004000400000008000400000CF
:1001B0000000014036020000024007000000044039
:1001C0001500000008400900000010400000000079
:1001D00020400500000040401D0000008040140049
:1001E00000000041000000000042370200000060F3
:1001F0000000000000440000000000480000000073
:1002000000500000000041400000010004403102A5
:100210000000804200001000404030000800044010
:10022000270204008040300210000240250228000E
:1002300000402E0204002040000000000A40350269
:1002400060000040310002002040000040000240F9
:10025000000022000040000030000040340208008E
:100260002040330210000440210208008040220296
:10027000010000000400020000000D000400000066
:100280002D000800000008001000000018002000E9
:1002900000000C004000000006008000000000008C
:1002A0000001000000000002000000000004000047
:1002B0000000000800000000001000000000002006
:1002C000000000000040000000000080000000006E
:1002D00000000100360000000200170000000400CA
:1002E00012000000080013000000100000000000D1
:1002F00020000B00000040001600000080001B00E2
:100300000000000100000000000237000000002093
:1003100000000000000400000000000800000000D1
:1003200000100000000041001E02010004002D0228
:10033000000080023802100040002F000800040076
:100340002602040080002F02100002001A0028007C
:1003500000001C0004002000100000000A0035000E
:100360006000000038000200200000004000020091
:1003700024022200000023023000000034000800A4
:1003800020003300100004001F020800800020023B
:100390000001010101010101010102020202020248
:1003A000020202030303030303030304040404041B
:1003B00004040505050505060606060607070707E2
:1003C0000708080808090909090A0A0A0B0B0B0C97
:1003D0000C0C0D0D0D0E0E0E0F0F0F101011111134
:1003E00012121313141415151616171718181919B5
:1003F0001A1A1B1B1C1D1D1E1E1F2020212222231A
:100400002424252626272829292A2B2C2D2D2E2F5A
:1004100030313232333435363738393A3B3C3D3E71
:100420003F404142434445464748494A4C4D4E4F60
:1004300050515354555658595A5B5D5E5F61626422
:10044000656668696B6C6D6F7072737577787A7BAF
:100450007D7E8082838587888A8C8E8F9193959606
:10046000989A9C9EA0A2A3A5A7A9ABADAFB1B3B526
:10047000B7BABCBEC0C2C4C6C9CBCDCFD1D4D6D802
:10048000DBDDDFE2E4E7E9EBEEF0F3F5F8FAFDFFA0
:100490000001020708090A0B0C0D0E0F10111213B0
:1004A000141516171819030405061A1B1C212223FC
:1004B0002425262728292A2B2C2D2E2F3031323384
:1004C0001D1E1F20290014001A0008001500170027
:1004D0002B0004001600070009000A00E5001D00BB
:1004E0001B00060019000500000000002B422A41F5
:1004F000E1000351290014001A000800150017003C
:100500002B0004001600070009000A00E5001D008A
:100510001B00060019000500000000002B422A41C4
:10052000E10003514C004B004A0052004D00000016
:1005300049004E00500051004F000000E500E4006B
:10054000E700E600900091000000000003512A41FE
:10055000E10003514C004B004A0052004D000000E6
:1005600049004E00500051004F000000E500E4003B
:10057000E700E600900091000000000003512A41CE
:10058000E100035101002D00240025002600380061
:1005900001002E022100220023002502370027003F
:1005A0001E001F0020002202000000002B42035109
:1005B000E100035101002D00240025002600380031
:1005C00001002E022100220023002502370027000F
:1005D0001E001F0020002202000000002B420351D9
:1005E000E1000351005C3A003B003C003D003E004E
:1005F00046003F00400041004200430084004400A8
:100600004500680082008300000000000351035190
:10061000E1000351005C3A003B003C003D003E001D
:1006200046003F0040004100420043008400440077
:100630004500680082008300000000000351035160
:10064000E100035105010906A101050719E029E7A9
:100650001500250195087501810295017508810134
:100660000507190029FF150026FF0095067508816A
:100670000005081901290595057501910295017577
:10068000039101C009022200010100A0FA0904003F
:1006900000010301010009211101000122400007AE
:1006A00005810308000A1201100100000008C016AD
:1006B000DB270100010203010403300000001E03D8
:1006C000530069006C0076006500720042007500FE
:1006D0006C006C00650074003400340000001403EA
:1006E0005300770061006E004D00610074006300EC
:1006F000680000000403090411241FBECFEFDAE0F4
:10070000DEBFCDBF04B603FE27C08091A903909140
:10071000AA03A091AB03B091AC038730904BA740E4
:10072000B04BD1F41092A9031092AA031092AB031C
:100730001092AC0314BE84B7877F84BF0FB6F894C1
:10074000A89580916000886180936000109260009D
:100750000FBEE0E0F8E3099523E0A6E0B2E001C0B7
:100760001D92A93AB207E1F712E0A0E0B1E0EAEB8E
:10077000F9E402C005900D92A630B107D9F70E94A6
:10078000BE170C94DB240C9400009091FC0292FFA5
:100790000DC0282F2871283019F4877F846006C087
:1007A000282F2471243011F48B7F886093FF0DC0B3
:1007B000282F2871283119F4877E846106C0282FDC
:1007C0002471243111F48B7E88612091FD0220FF79
:1007D0000DC0382F3871383019F4877F816006C01A
:1007E000382F3171313011F48E7F886021FF0DC0B8
:1007F000282F2871283119F4877E816106C0282F9F
:100800002171213111F48E7E886194FD877E0895D7
:100810009C013A9521153F4138F5DC01AA27B270B9
:10082000AC01442754709C012227387094FF0FC0FC
:1008300090FF02C080E101C080E0AB2B09F0806234
:10084000452B09F08064232B69F080680BC0892F49
:100850008170AB2B09F08260452B09F08460232B5B
:1008600009F08860FB0109940895E7E0F1E015863E
:1008700012861186168A86859785A089B189882770
:100880009927AA27B07C86879787A08BB18B128A7D
:10089000138A148A158A0895CF93DF93EC010E947E
:1008A000FB21CE01805E9109089710F0209719F482
:1008B0006EEA71E202C069E971E2CE01DF91CF9187
:1008C0000C940804CF93DF93EC01805E91090897A4
:1008D00010F0209719F469EB71E202C064EA71E24A
:1008E000CE010E9408048C2FDF91CF910C945622E8
:1008F0001F93CF93DF93CDB7DEB767970FB6F8940A
:10090000DEBF0FBECDBF4B8B5C8B6D8B7E8B8F8B19
:1009100086E09E01235F3F4FD901E82F1D92EA95A3
:10092000E9F795E0FE017396D90101900D929A9531
:10093000E1F7F901DE01179601900D928A95E1F732
:10094000CE0107960E948F1C81113EC086E0FE01F9
:100950003796DE01119601900D928A95E1F7FF819D
:10096000E8856A857B856115710531F0EF3F31F4CB
:1009700081E0FF3F19F403C081E001C080E080FD09
:1009800023C020912B0330E0C9010196877099277D
:1009900040915C0350E08417950779F1F983EA836D
:1009A0007D836C8396E0929FD001939FB00D1124BC
:1009B000A45DBC4FFE01319601900D929A95E1F72E
:1009C00080932B030E94191C16E080915C03909188
:1009D0002B038917F9F0189FC0011124845D9C4FE7
:1009E0000E948F1C8823B1F080915C0390E00196F7
:1009F0008770992780935C03E8CF0E94EC211092C6
:100A00002B0310925C03E5E2F3E086E0DF011D9228
:100A10008A95E9F767960FB6F894DEBF0FBECDBF93
:100A2000DF91CF911F910895E0910703F0910803A2
:100A3000309721F00190F081E02D099480E0089535
:100A40000F931F93CF93DF93C62FD42F122FFC0148
:100A500082818823C9F06093E2020E94021A909377
:100A60000F0280930E0280E28C0F883008F069C07C
:100A7000C77081E001C0880FCA95EAF7DF91CF9176
:100A80001F910F910C94B9218091E202681349C023
:100A900020910E0230910F024FB7F8948091880395
:100AA00090918903A0918A03B0918B034FBF821B61
:100AB000930B883C9105A8F500E20D0F6D17B9F076
:100AC00080E2860F883040F4C77081E001C0880F53
:100AD000CA95EAF70E94AE21083048F481E09D2FC4
:100AE000977001C0880F9A95EAF70E94B921812F6B
:100AF0000E945622193349F4FFEF27EE83E0F150AC
:100B000020408040E1F700C00000812F0E94FB21BF
:100B10000830B8F4D77081E001C0880FDA95EAF7A1
:100B20000AC080E28C0F883060F4C77081E001C099
:100B3000880FCA95EAF7DF91CF911F910F910C941E
:100B4000AE21DF91CF911F910F910895882311F06D
:100B5000FA0101C0FB010994CF92DF92EF920F934B
:100B60001F93CF93DF93CDB7DEB7CC59D1090FB622
:100B7000F894DEBF0FBECDBF6091030180910103E9
:100B800080FF0AC0E0E9F4E0AE014F5F5F4F8E01E5
:100B900003561F4FCA0114C08091040190910501B2
:100BA000891780F7E82FF0E09F01220F331FE20F33
:100BB000F31FE05FFD4F1182108212828F5FF0CF32
:100BC000249130E0D901AA0FBB1F2A0F3B1FD90186
:100BD000A05FBD4FCD90DD90EC90DA01CD92DD921B
:100BE000ED92AD013196A017B10751F720910201A6
:100BF000FC01B3E02B9FE00DF11D1124539A8BB142
:100C0000877F9BB198602FB7F894AF0133E0639F63
:100C1000400D511D1124E417F50789F0319168E06A
:100C20009BB9000000C037FF8BB9330F000000C034
:100C300000C000C08BB900C06A9591F7ECCF2FBF00
:100C40008FE594E00197F1F700C00000C456DF4F34
:100C50000FB6F894DEBF0FBECDBFDF91CF911F91CD
:100C60000F91EF90DF90CF90089580910103982F1E
:100C70009695913021F0817082608093010380917C
:100C80000403873918F086E9809304030895CF920E
:100C9000DF92EF92FF926B017C010E943506B70153
:100CA000A60188E090E0FF90EF90DF90CF900C9449
:100CB0007F249F92AF92BF92CF92DF92EF92FF92EA
:100CC0000F931F93CF93DF939091010390FFD6C0B2
:100CD000922E142FC62FD82FE92FE695F0E0E05280
:100CE000FE4F80818093FE029E7F923009F098C073
:100CF000E42F473908F0E6E9F0E0C11106C0E057FB
:100D0000FC4F2491022FE22F72C0EC2EF12CE05701
:100D1000FC4FE491FE2FCE2ED12C26E0D29FC001B5
:100D200011242FEF30E0B9010E94AD244BEA4603B5
:100D3000C001479F900D11248D0F911D8D0F911DA6
:100D4000B82EBB0CB80EA9014E195F094C9DC0010D
:100D50004D9D900D5C9D900D1124092FCB9DA00100
:100D60001124452F5527D901A41BB50BAC9DA0011B
:100D7000AD9D500DBC9D500D1124D901AB19B10989
:100D80005D01AE9CD001AF9CB00DBE9CB00D112496
:100D9000AB2FBB272A1B3B0B2C9DD0012D9DB00DEB
:100DA0003C9DB00D11242B2F6230710591F048F459
:100DB00061157105E1F061307105B9F42E2FE52F51
:100DC00016C06430710569F040F06630710579F045
:100DD0000CC02E2FE92F0B2F0AC0E92F0F2F252F24
:100DE00006C0292F0E2FEB2F02C0292F052F80912F
:100DF000040190910501891788F4A82FB0E0AD0196
:100E0000440F551FA40FB51FA05FBD4F1196EC9363
:100E100011972C9312960C938F5FEDCF0E94AC0527
:100E200080910203D81308C080910303C81304C043
:100E300080910403181729F0809100038260809349
:100E40000003D0930203C09303031093040399207B
:100E5000A9F06091010370910203809103039091C6
:100E60000403DF91CF911F910F91FF90EF90DF90DE
:100E7000CF90BF90AF909F900C944706DF91CF9199
:100E80001F910F91FF90EF90DF90CF90BF90AF90A8
:100E90009F900895E1E0F3E0438128E0421B08F4CD
:100EA00040E021E0628181810C945906E1E0F3E0A9
:100EB000438128E0420F08F44FEF21E062818181F5
:100EC0000C945906E1E0F3E0628128E0621B08F42B
:100ED00060E021E0438181810C945906E1E0F3E078
:100EE000628128E0620F08F46FEF21E04381818185
:100EF0000C945906E1E0F3E0818121E043816281B5
:100F000088500C945906E1E0F3E0818121E04381AF
:100F10006281885F0C94590680910503882319F03B
:100F200081508093050360910103709102038091C9
:100F30000303909104030C944706809105038330CA
:100F400018F48F5F80930503609101037091020391
:100F500080910303909104030C9447068091010350
:100F600080FF1EC081708260809301038091000326
:100F7000816080930003662351F0609101037091BA
:100F8000020380910303909104030E94470620E02E
:100F90004091040360910303809102030C9459066D
:100FA0000895809101038695815009F481E061E004
:100FB0000C94AE0761E081E00C94AE07E1E0F3E051
:100FC00083E0808311828FEF828386E9838314829A
:100FD000AEEFB2E012968C911297836012968C93CA
:100FE00060817181828193810C94470680910D020A
:100FF000811112C08091D80080618093D8008AE16D
:101000008A95F1F700C08091D90080FD02C082E08E
:1010100001C081E080930D0281E090910D0291303A
:1010200009F080E008956F927F928F929F92AF9225
:10103000BF92CF92DF92EF92FF920F931F93CF93C5
:10104000DF9368EF71E002EF12E0C6EFEC2EC2E032
:10105000FC2E3801C0E0AA24A394B12CDB018D91B1
:10106000BD01E82FE295EF70F0E021A18F70A5019E
:1010700002C0440F551F8A95E2F7CA01242B21A311
:1010800022A1942E9094292122A350EA5A95F1F797
:10109000B0E0CB2EB2E0DB2E20E030E0D0E0D60195
:1010A0008D906D01482D42954F7050E0DA01909679
:1010B0004C9150E0B82DBF7002C055954795BA9538
:1010C000E2F740FD07C04A2D022E01C0440F0A94EA
:1010D000EAF701C040E0D42B2F5F3F4F26303105A7
:1010E000F1F691A1992291A292A1892B82A3F301F9
:1010F0008081D81719F0D08381E001C080E0C82B2F
:10110000FFEF6F1A7F0AE614F70409F0A7CFE0910A
:10111000FB02CE2ED12CCC2349F081E08093080233
:101120000E94021A9093070280930602809108029F
:101130008823F9F020910602309107024FB7F89406
:101140008091880390918903A0918A03B0918B03C9
:101150004FBF821B930B0B9760F0F601E65FFC4FCD
:10116000D8018D918D018193EA16FB06C9F7109283
:1011700008020E94F6078823D1F11091FA028091AB
:1011800000038823E9F085E0E1E0F3E0A4EEB2E0BB
:1011900001900D928A95E1F78091FE029091FF02F5
:1011A000A09100038093E9029093EA02A093EB02DE
:1011B00081E090E00E94D623892B11F41092000365
:1011C00080E090E00E94D623892B09F07AC1E12FBC
:1011D000F0E0E65FFC4F80E090E0DC01A351BD4F02
:1011E0002C912193019684309105B9F74DC0E0917F
:1011F000FB020E2F10E08091EC028830B1F5809157
:10120000EB0280FF23C09091E4028091010390FFE4
:101210000AC08160809301038091E40260E08695BA
:101220000E94AE0713C08E7F80930103809100035C
:10123000816080930003EFEFF0E722E0E150F0409F
:101240002040E1F700C000000E94AC058091EB0255
:1012500081FF09C020E04091E7026091E6028091A1
:10126000E5020E9459061092EC02F801E65FFC4F7D
:1012700080E090E02191DC01A351BD4F2C930196B9
:1012800084309105B9F72FC110920C0280910101B1
:10129000882309F49BC040917B0350917C036091AB
:1012A0007D0370917E0383E090E041155105610557
:1012B000710561F08A019B01082E04C036952795BF
:1012C000179507950A94D2F700FD09C0019769F7B1
:1012D00080910801823011F080E001C084E0E82FA5
:1012E000F0E0EE0FFF1FEA52FE4F0190F081E02D7B
:1012F00080910B028F5F80930B02E80FF11D20811C
:1013000021113DC010920B0281E08093DD02809399
:1013100001019091090120910A0130910B01409146
:101320000C01ADECB2E080E0823051F0833059F036
:10133000813019F09923F1F008C02223D9F005C0BB
:101340003323C1F002C04423A9F011966C91119788
:1013500013965C911397EC91F0E08F01000F111F31
:10136000E00FF11FE05FFD4F12967C9112977183A1
:10137000608352838F5F14968430B1F627C0215367
:10138000273070F430E0F901E45AFE4F5081F90142
:10139000EB5AFE4F4081F901E25BFE4F208103C012
:1013A00024E040E050E066E10E94A124E92FF0E053
:1013B000EE51FE4FE081F0E0CF01880F991FE80F5A
:1013C000F91FE05FFD4F51834083228380910A0221
:1013D0008F5F843018F480930A0202C010920A02D0
:1013E000E0910A02B8E0EB9FF0011124E455FD4FB3
:1013F0008081882309F44AC091E09093DD028150F6
:101400008083538190E04281258130E0241B3109A3
:10141000289FB001299F700D389F700D11249B01EA
:10142000220F232F221F330B420FA481678170E00C
:101430006A1B7109689F9001699F300D789F300D7C
:101440001124220F232F221F330B2A0FA181B0E07A
:10145000BD01660F771FA60FB71FA05FBD4FE681C6
:10146000F0E0E51BF109E89FB001E99F700DF89FDE
:10147000700D1124CB01880F892F881F990B850FC0
:1014800011968C9311974C9312962C938091DD02B8
:10149000882319F081E0809300011092DD02809191
:1014A00009028F5F833018F4809309021CC01092E8
:1014B00009028091000181110E94AC051092000187
:1014C00012C080910C028F5F80930C02863008F46A
:1014D000DDCEE091FA02F0E0E65FFC4F108211826F
:1014E00012821382D3CE8C2FDF91CF911F910F9157
:1014F000FF90EF90DF90CF90BF90AF909F908F9034
:101500007F906F900895CF93DF9320E3829FC00177
:101510001124FC0136E0739FE00DF11D1124E60F4C
:10152000F11DEE0FFF1FEC53FB4FC591D491CE017F
:10153000C238D10569F1B0F4C133D10509F475C0E1
:1015400048F4C932D10509F469C0CA32D10509F499
:1015500073C079C0C533D10509F459C0C933D10569
:10156000B9F071C0C33ED10571F138F4C03ED10568
:10157000B1F0C23ED10511F166C0C63ED105B9F148
:10158000C73ED105C9F1C43ED10509F05CC024C0F5
:101590002091FC0220FD3CC121FD3AC154C02091A4
:1015A000FC0220FD2FC12091FD0220FF36C1809159
:1015B000FC0284FD24C183EE90E02FC12091FC0247
:1015C00022FF2BC1F4CF8091FC0282FD1EC18091CD
:1015D000FD0280FD1DC1EBCF2091FD0221FF1DC149
:1015E0008091FC0284FD0BC187EE90E016C1209132
:1015F000FC0223FF12C1F4CF8091FC0283FD0BC1DA
:101600008091FD0281FFECCF84EE90E006C1209135
:10161000FC0225FF02C189E290E0FFC02091FC029C
:1016200025FFFBC085E390E0F8C02091FC0226FF77
:10163000F4C08AE290E0F1C02091FC0226FFEDC0E8
:1016400081E390E0EAC0C11543E5D407A0F5C115D8
:1016500052E5D50708F09CC0C11520E2D207C0F4BE
:10166000C11531E0D30708F0D8C0C53AD10540F420
:10167000C430D10508F0D1C0219709F4CEC0BFC055
:101680009E01205E31092830310508F0B8C0C5C080
:10169000C11541E5D40708F076C0C11550E5D5075E
:1016A00008F051C0C11580E4D80708F4A8C0CE01E5
:1016B0009F70906AB2C0C11526E5D20700F5C1152A
:1016C00035E5D30708F07FC0C11544E5D40708F01D
:1016D00075C09E012370332781E090E0AC0102C009
:1016E000440F551F2A95E2F72C2F2695269530E2B8
:1016F000239FC0011124842B952B9A688EC0C1159D
:101700005AE5D50778F4C11589E5D80708F064C013
:10171000C11528E5D20708F472C09C2F8827806F76
:10172000906A7BC0CE0190568115904208F067C048
:101730008D2F8F710E94C5039E01332730628F71F8
:10174000A901582B5AC0CE01F4E096958795FA95D9
:10175000E1F7282F23703C2F337081E090E002C026
:10176000880F991F3A95E2F79C68AC01522B8C2F99
:101770008F70282F2695269530E2239FC0011124D3
:10178000842B952B4AC09C2F8827816F906A45C077
:101790009E012370332781E090E0AC0102C0440F2A
:1017A000551F2A95E2F72C2F2695269530E2239F88
:1017B000C0011124842B952B9C682FC09C2F882757
:1017C000846F906A2AC08C2F0E94C5038F7190E0AD
:1017D000982F8827906221C08C2F8F700E94C5039C
:1017E0009E0194E0369527959A95E1F72F7030E0A9
:1017F000322F22273069A901482BCA010EC080E090
:1018000090E00BC089E390E008C082EE90E005C054
:1018100080EE90E002C086EE90E0DF91CF910895D7
:101820004F925F926F927F928F929F92AF92BF92F0
:10183000EF92FF920F931F93CF93DF93CDB7DEB755
:101840002A970FB6F894DEBF0FBECDBFF82E509189
:101850001D018090190190901A01A0901B01B09079
:101860001C0100E040E015160CF058C010E0EE241A
:10187000EA94E50E2E2D80E090E0DC01211784F043
:1018800034E02302F0011124E95FFE4F4788508CB9
:10189000618C728C84299529A629B7292150EECF15
:1018A00020E732E0F90145905590659074908415D9
:1018B0009505A605B70591F02A5F3F4F63E02039F3
:1018C000360781F720E531E0F901459055906590A4
:1018D000749084159505A605B70541F4F901349671
:1018E000659174916115710539F032C12A5F3F4FDE
:1018F00062E02037360741F788219921AA21BB21D0
:101900000097A10520E4B20731F00097A105B04887
:1019100009F41CC114C16CE270E01AC1EE24EA940F
:10192000E40E10E0E7FC23C1EE2DEE0FFF0B81E08B
:1019300090E08C0F9D1FE80FF91F008111818091AD
:101940000801823009F088C00F301105C9F158F440
:101950000630110509F050C08EE090E00E9462044C
:101960008EE090E050C00431110599F00B31110563
:1019700009F042C081E190E00E94620481E190E0C0
:101980000E944C0481E190E00E94620481E190E0B9
:101990003AC08FE090E00E9462048FE090E00E94E5
:1019A0004C0487E190E00E94620487E190E00E948D
:1019B0004C0488E190E00E94620488E190E023C03A
:1019C00080910901811102C0FF2079F08AE190E045
:1019D0000E9462048AE190E00E944C0482E190E05F
:1019E0000E94620482E190E00EC08FE090E00E94CD
:1019F00062048FE090E007C00115110531F0C801C5
:101A00000E946204C8010E944C0480910901811166
:101A100003C0FF2009F490C0F8013497EA31F105C2
:101A200008F08AC0EA5AFF4F0C94D52481E190E077
:101A30000E94620481E190E00E944C0481E190E008
:101A40000E94620481E190E075C08CE190E00E9408
:101A500062048CE190E06EC080910A01882321F03D
:101A600080EE90E00E94620480910B01882321F0B7
:101A700082EE90E00E94620480910C01882321F0A4
:101A800083EE90E00E946204F1100FC020910901E2
:101A9000C80104974A9720F481E0211107C003C0D0
:101AA00081E0213019F080E001C081E0982F917031
:101AB000B92E80FF0CC081EE90E00E9462040115F7
:101AC000110541F481EE90E00E944C040BC0011519
:101AD000110541F0C8010E946204C8010E944C0433
:101AE000B110F0CF80910901813011F410920901F9
:101AF00080910A01882341F0813011F410920A018B
:101B000080EE90E00E944C0480910B01882341F00C
:101B1000813011F410920B0182EE90E00E944C048F
:101B200080910C01882341F0813011F410920C0156
:101B300083EE90E00E944C04EA9411E0F3CE1F5F24
:101B4000511398CE01118FCE5E2D8DCE6AE270E0DA
:101B5000E42FEE0FFF0B21E030E02C0F3D1FE20FD2
:101B6000F31F718360834F5F512F01E07CCE0E9491
:101B70003504812F2A960FB6F894DEBF0FBECDBF75
:101B8000DF91CF911F910F91FF90EF90BF90AF9099
:101B90009F908F907F906F905F904F9008950E94DC
:101BA0003504E7E0F1E016861786108A118A128A5A
:101BB000138A148A158A08954F925F926F927F92CA
:101BC0008F929F92AF92BF92DF92EF92FF920F930C
:101BD0001F93CF93DF93CDB7DEB72A970FB6F89454
:101BE000DEBF0FBECDBFFC010081D1808381948117
:101BF000892B39F01FEFD11206C091E00F3F19F485
:101C000003C091E001C090E090FD68C77F0185E0CE
:101C1000DE01169601900D928A95E1F7F701228177
:101C20008E819F81222349F00E94F81A182F682F75
:101C30008E819F810E94721B03C00E94451B182F3A
:101C400020E3129FF001112436E0D39EE00DF11D38
:101C50001124E00FF11DEE0FFF1FEC53FB4F059118
:101C60001491F70182818823B9F00039110561F0E0
:101C70000139110589F481E0809307010E94CF0D9D
:101C800082E08093080108C0DD24D394D09207013C
:101C90000E94CF0DD092080181E0809301018093D2
:101CA000DD02F7018281882309F485C02181237038
:101CB000808166E00E94A124233019F493709E5E17
:101CC00005C0822F880F820F880F980F892F90E010
:101CD000C49664E370E00E94C12466E10E94A124DE
:101CE000E92FF0E0EE51FE4F8081053E1105F1F045
:101CF00068F4043E110571F58093D10280E680936B
:101D0000D3028093D2028093D40255C0063E1105BF
:101D1000B9F0073E1105F1F48093D90280E6809373
:101D2000DB028093DA028093DC0245C08093CD020F
:101D300080E68093CF028093CE028093D0023BC096
:101D40008093D50280E68093D7028093D602809359
:101D5000D80231C09091CC029F5F943018F49093D8
:101D6000CC0202C01092CC02A091CC02F8E0AF9F4E
:101D7000D0011124A455BD4F11968C93119790E872
:101D80009C9390E0FC01EE0FFF1F8E0F9F1FFC0144
:101D9000E05FFD4F20813181428112962D933D936A
:101DA0004C93149780E616968C93169715968C9301
:101DB000159717968C9380910701882309F409C31E
:101DC0000115110509F4A6C0F701D280C801845E8F
:101DD0009109049708F063C0DD2009F4D8C20E947D
:101DE000021AAC018091E0029091E10208171907F4
:101DF000A1F42091DE023091DF022417350728F488
:101E0000CA01821B930B9C0104C020953095240FBE
:101E1000351F91E0283C310508F090E01093E10275
:101E20000093E0025093DF024093DE02063E11056C
:101E3000F1F0073E110539F1053E110561F480917D
:101E40000901811104C081E080930901A0C2990FAA
:101E5000909309019CC280910A01811104C081E024
:101E600080930A0194C2990F90930A0190C28091C5
:101E70000B01811104C081E080930B0188C2990F8E
:101E800090930B0184C280910C01811104C081E008
:101E900080930C017CC2990F90930C0178C204309E
:101EA000110508F465C10E31110570F404501109D3
:101EB000812C912C5401839404C0880C991CAA1C79
:101EC000BB1C0A95D2F763C10733110509F454C14D
:101ED00040F403331105C1F00633110509F452C172
:101EE00047C10833110551F0013E110509F040C109
:101EF000812C912CA12C50E4B52E49C1812C912C20
:101F0000A12C70E1B72E43C1812C912CA12C60E251
:101F1000B62E3DC1F7019281992309F4A5C2109212
:101F2000E2020230FCE51F0708F488C206312CE506
:101F3000120738F098012A5F3C452930310508F036
:101F40007DC20E94511A9093FD028093FC020031E1
:101F50003CE5130709F4C3C008F041C008309CE514
:101F6000190709F49AC0F0F40430FCE51F0709F4DE
:101F700087C068F402303CE5130709F477C00330EA
:101F80001C4509F0E5C08091FC02826076C00630F5
:101F90009CE5190709F46EC008F07BC08091FC0233
:101FA00088606BC00C30FCE51F0709F485C068F43D
:101FB0000A303CE5130709F474C008F079C00E94A8
:101FC000EC218091FC02806858C00E309CE5190716
:101FD00009F476C008F07FC08091FC028BC00B3FF3
:101FE000FCE51F0709F44FC018F503313CE5130762
:101FF00009F47DC078F401319CE5190709F473C038
:1020000002311C4509F0A4C00E94EC218091FC0221
:102010008F7733C00531FCE51F0709F472C008F45F
:1020200086C00A3F1C4509F093C08091FD023EC066
:102030000F3F8CE5180709F45FC058F40D3FECE53D
:102040001E0709F444C008F43FC08091FD0282607D
:102050002DC001302DE5120709F475C008F45DC0EC
:1020600002301D4509F074C060E06EC08091FC0232
:10207000816003C08091FC0280618093FC0268C093
:102080008091FC0211C08091FD0282608093FD026C
:102090005FC08091FC028062F0CF8091FC0280647E
:1020A000ECCF8091FC0288608460E7CF8160EECF46
:1020B0008091FC028E7FE1CF8091FC028D7FDDCF8D
:1020C0008091FC02877FD9CF8091FD0218C080915A
:1020D000FD028D7FDBCF8091FC028F7ECECF809181
:1020E000FC028F7DCACF8091FC028F7BC6CF80918E
:1020F000FC02877F8B7FC1CF8091FD028D7F8E7F19
:10210000C5CF8091FC0282FB222720F991E0922723
:1021100090FB82F990FB83F9B0CF8091FD02982F5C
:10212000909591708E7F892B90FB81F9AFCF0E94A3
:10213000EC218091FC0287FB222720F991E0922775
:1021400090FB87F99ACF61E08EE090E00E946D24C9
:102150006091FC021091FD0284E090E00E946D24E9
:10216000612F81E290E00E946D240E94EC210FC15A
:1021700080E00E94100C2DC1812C912CA12C98E0A4
:10218000B92E05C0812C912CA12C84E0B82E0E9480
:10219000021A8C012401350140945094609470948B
:1021A000DD2009F48AC080911001909111010097FF
:1021B00059F481149104A10490E4B906A9F1109393
:1021C0001101009310012BC08017910728F4F8012A
:1021D000E81BF90BCF0104C080959095800F911FEB
:1021E00020910E0130910F012817390790F48114C6
:1021F0009104A104F0E4BF0629F0109311010093AB
:10220000100104C0109211011092100180E00E9490
:10221000100C81149104A10400E4B00629F080910F
:102220000D018F5F80930D01809114018F5F80936A
:1022300014018091190190911A01A0911B01B09194
:102240001C01482259226A227B2240921901509295
:102250001A0160921B0170921C01809115019091EE
:102260001601A0911701B091180188299929AA296E
:10227000BB298093150190931601A0931701B09389
:102280001801E0911D01E5300CF081C021E02E0F16
:1022900020931D0114E0E102F0011124E95FFE4FDB
:1022A00088279927AA27B07C882A992AAA2ABB2A94
:1022B000878A908EA18EB28E6AC08091190190910A
:1022C0001A01A0911B01B0911C0188299929AA2902
:1022D000BB298093190190931A01A0931B01B0931D
:1022E0001C0181149104A10420E4B20629F080911C
:1022F0000D01815080930D0180910D018F3F11F4EC
:1023000010920D01809114018823E9F080910D0154
:10231000811119C0809110019091110180179107CE
:1023200020F49801281B390B05C09C01209530959D
:10233000200F311F892B21F081E0293C310508F461
:1023400080E00E94100C8091150190911601A091DF
:102350001701B0911801482259226A227B2240922B
:102360001501509216016092170170921801109396
:102370001301009312010BC0073DECE51E0709F0A5
:10238000C9CD26E241EE61EEC7010E942005809191
:102390007F03877009F4A2C3F7018281882309F4BF
:1023A0009DC382E02A960FB6F894DEBF0FBECDBF64
:1023B000DF91CF911F910F91FF90EF90DF90BF9031
:1023C000AF909F908F907F906F905F904F900C9404
:1023D000D11B033F2CE5120721F426E241EE60EE0B
:1023E000D3CF043F3CE5130780F4083D8CE5180784
:1023F00021F427E245EE65EEC7CF093D9CE51907BC
:1024000009F0BACF28E241E0F6CF053FFCE51F070F
:1024100021F426E241EE62EEB7CF053F2CE512072C
:1024200020F427E245EE64EEAFCF063F3CE513070C
:1024300009F070CD27E245EE66EEA6CF06318CE5B9
:10244000180759F5809182038A7A91E009F490E0A7
:102450009093E302882311F065E301C069E28DE106
:1024600093E00E94371A16C00631ECE51E0761F5AD
:102470008091E302882309F4CAC285E3EDE1F3E029
:1024800023E233E09281891301C0128231962E1724
:102490003F07C1F70E94CB1A7ACF01152CE512072E
:1024A00031F00E3D1C45D1F40E94621A70CF0E949B
:1024B000EC218FEF94E3ECE081509040E040E1F7B5
:1024C00000C000000E94CB19809182038272F80143
:1024D000E25CFC45E431F10508F49BC2F7010081A0
:1024E0001181992349F0C8010E94F81AD82E682F4B
:1024F000C8010E94721B04C0C8010E94451BD82E4F
:10250000B8018D2D0E94830A8C01882EF701A580C9
:10251000A2944FE0A42292809110109281038091A6
:102520007F03877099F0992089F0812F807F803414
:1025300021F080E2800F883048F082E00E94D11BB9
:1025400080917F038770DD24D3948111D12CB12E2B
:10255000B2943FE0B3228B2D90E08C30910508F0CF
:1025600019C2FC01E059FF4F0C94D524812F807FC4
:102570001F70882311F01295107F9920B9F0112354
:1025800009F4F3C180E2800F883010F0811006C09A
:1025900080918203182B1093820305C080918103E0
:1025A000182B109381030E94CB1ADFC1802F0E9449
:1025B000FB21112309F4EEC1005E1095083010F0E4
:1025C000811006C08091820318231093820305C0F6
:1025D000809181031823109381030E94CB1ADAC1E2
:1025E000812F807F1F70803211F01295107F88201C
:1025F00021F0F1E08F16E1F02AC0992081F080915E
:102600008303AA2051F001E0A01207C0182B18176D
:1026100009F4C0C110938303BDC1812B10C0AA204F
:1026200021F021E0A21609F4B5C10E94C51A27C005
:10263000992041F035E03A1508F4ACC1812F0E9491
:10264000B921A8C184E08A1508F4A4C118C0992052
:1026500049F0AA2099F3F701858180FF86C18F7028
:102660008583ECCFAA2059F0093309F090C1FFEF20
:1026700017EE23E0F15010402040E1F786C1812F92
:102680000E94AE2187C1812F837009F069C091102B
:1026900085C1902F929596959770990F990F802FDD
:1026A0008F70882E912CA12CB12C092E04C0880C7F
:1026B000991CAA1CBB1C0A94D2F704FF12C04FE05D
:1026C00050E060E070E004C0440F551F661F771FA4
:1026D0009A95D2F7DB01CA0180959095A095B095A7
:1026E00003C080E090E0DC0116951695412F437001
:1026F000423019F1C8F400918403109185032091B0
:10270000860330918703413059F088299929AA29F5
:10271000BB29BC01CD0160237123822393230AC00E
:10272000802A912AA22AB32ABC01CD0168297929DD
:102730008A299B290E940B1C31C188299929AA2921
:10274000BB29009184031091850320918603309169
:102750008703BC01CD016027712782279327EACF29
:10276000992019F0812F817001C08695882309F482
:1027700015C1902F929596959770990F990F802F6C
:102780008F70882E912CA12CB12C092E04C0880C9E
:10279000991CAA1CBB1C0A94D2F704FF12C04FE07C
:1027A00050E060E070E004C0440F551F661F771FC3
:1027B0009A95D2F7DB01CA0180959095A095B095C6
:1027C00003C080E090E0DC0116951695412F437020
:1027D0004230D9F068F500917B0310917C03209181
:1027E0007D0330917E03413059F088299929AA2927
:1027F000BB29BC01CD0160237123822393231EC01A
:10280000802A912AA22AB32A13C088299929AA29A1
:10281000BB2900917B0310917C0320917D033091B3
:102820007E03BC01CD01602771278227932706C054
:10283000BC01CD01682979298A299B290E949E1B08
:10284000ADC01F70992039F0812F0E94EA1B802FA4
:102850000E94B921A3C0802F0E94AE21812F0E9427
:10286000AC1B9CC0802F32EF831609F440C0381592
:1028700038F090EF891661F0E1EF8E1699F170C093
:10288000F3EF8F16D9F124EF821609F44EC068C019
:10289000992019F134E03A1508F47CC01F7181E0E9
:1028A00090E0A0E0B0E0AC01BD0104C0440F551FB2
:1028B000661F771F1A95D2F780917B0390917C0356
:1028C000A0917D03B0917E038A019B0108271927FF
:1028D0002A273B27C901B80121C025E02A1508F4A1
:1028E00059C0DCCF992029F0812F8F712CC09920FD
:1028F000D9F3812F8F710E94AC1B4CC0992089F0B5
:102900001F7181E090E0A0E0B0E0BC01CD0104C007
:10291000660F771F881F991F1A95D2F70E949E1B7A
:1029200039C060E070E0CB01F9CF992079F01F71D8
:10293000812F0E94EA1B38E0139FC001112483609D
:1029400080937F03812F0E94EA1B24C081E00E94B4
:10295000D11B81E08A15F0F482E00E94D11B1AC0DD
:10296000992039F0AA2009F4BFCF802F0E94562267
:1029700011C0AA2009F4BDCF893349F49FEFE7EED7
:10298000F3E09150E040F040E1F700C00000802FFC
:102990000E94FB2188EF8B0D843010F40E941405F7
:1029A000DD20A9F080917F0380FD11C0F701128224
:1029B0008595859585950E94EA1BC7010E94DC0DCF
:1029C00080917F038595859585950E94AC1B85E058
:1029D000F701DE01119601900D928A95E1F7898148
:1029E0009A810E94451B9A8100E3809FF001112487
:1029F00016E0919FE00DF11D11248981E80FF11D72
:102A0000EE0FFF1FEC53FB4F8591949167C089E255
:102A100035CDE458FF4F0C94D5248091010380FFFD
:102A20001EC08E7F809301036091010370910203A9
:102A300080910303909104030E9447068091000354
:102A40008160809300039FEFE0E7F2E09150E04067
:102A5000F040E1F700C000000E94AC0598CC816016
:102A60008093010361E0869536C041ED57E06AED41
:102A700077E02CC04AED57E061ED77E027C04AE7E8
:102A800057E063E877E022C043E857E06AE777E081
:102A90001DC042E657E06EE677E018C04EE657E00C
:102AA00062E677E013C04AE457E066E577E00EC0DF
:102AB00046E557E06AE477E009C04CE857E06DE985
:102AC00077E004C04DE957E06CE877E00E94A60586
:102AD0005ECC61E081E00E94AE0759CC2A960FB629
:102AE000F894DEBF0FBECDBFDF91CF911F910F9144
:102AF000FF90EF90DF90BF90AF909F908F907F906E
:102B00006F905F904F900895E8EDF0E080818E7FA8
:102B100080831092E2001092DA001092E100A0EEA1
:102B2000B0E08C9181608C9380818F77808319BC19
:102B3000A7EDB0E08C918E7F8C9380818F7E808317
:102B400010921C030895089508950895CF92DF927E
:102B5000EF92FF920F931F93CF93DF93C8EDD0E0D6
:102B600088818F7E8883E7EDF0E0808181608083BB
:102B700084E082BF81E080931C0388818E7F8883FC
:102B800002EE10E0F80110821092DA0081EEC82EF9
:102B9000D12CF601108288818F77888388818068A4
:102BA000888388818F7D888319BC10929803109246
:102BB0009903109297031092960390EEE92EF12C50
:102BC000F70180818B7F808388818160888360E0CA
:102BD00080E00E94641EF60180818E7F8083F80170
:102BE000808181608083808188608083F70180811B
:102BF0008E7F8083888180618883DF91CF911F9150
:102C00000F91FF90EF90DF90CF900895CF93DF93D7
:102C100020919803243039F521E02093E9002FEF2B
:102C20003091E800215035FD06C035ED3A95F1F7B9
:102C300000002111F5CF2091E80025FF14C0EC0120
:102C400040E050E068E070E00E943E1E8091E800A5
:102C50008E778093E80088E0FE01AEE8B3E0019053
:102C60000D928A95E1F7DF91CF9108951F920F920F
:102C70000FB60F9211242F933F934F935F936F934F
:102C80007F938F939F93AF93BF93EF93FF93809125
:102C9000E10082FF09C08091E20082FF05C08091BF
:102CA000E1008B7F8093E1008091DA0080FF2AC0F1
:102CB0008091D80080FF26C08091DA008E7F8093BB
:102CC000DA008091D90080FF18C080E189BD82E1DF
:102CD00089BD09B400FEFDCF81E080939803809107
:102CE0001C0381110FC00E9484150E94A6158091BB
:102CF000E20084608093E20005C019BC1092980342
:102D000010921C038091E10080FF17C08091E200C7
:102D100080FF13C08091E2008E7F8093E20080915B
:102D2000E20080618093E2008091D800806280930D
:102D3000D80019BC85E0809398038091E10084FF5E
:102D400032C08091E20084FF2EC080E189BD82E123
:102D500089BD09B400FEFDCF8091D8008F7D80939E
:102D6000D8008091E1008F7E8093E1008091E200A5
:102D70008F7E8093E2008091E20081608093E20088
:102D800080919903882311F084E007C08091E300CB
:102D900087FD02C081E001C083E0809398030E9418
:102DA000EC210E9414058091E10083FF26C08091F0
:102DB000E20083FF22C08091E100877F8093E100E1
:102DC00082E080939803109299038091E1008E7FB6
:102DD0008093E1008091E2008E7F8093E2008091F9
:102DE000E20080618093E20060E080E00E94641E67
:102DF0008091F00088608093F000FF91EF91BF9187
:102E0000AF919F918F917F916F915F914F913F9182
:102E10002F910F900FBE0F901F9018952091E400F6
:102E20003091E50095E64091EC00842F817040FFE1
:102E300023C08091E80080FD1DC080919803882305
:102E400099F0853099F08091EB0085FD11C040919B
:102E5000E4005091E5002417350729F3915011F053
:102E60009A01E1CF84E0089582E0089583E0089517
:102E700081E0089580E008954091E80042FFDDCFB1
:102E8000089580919A0387FF11C08091E80082FD28
:102E900005C0809198038111F8CF11C08091E8009E
:102EA0008B770BC080919803882349F08091E800CC
:102EB00080FFF8CF8091E8008E778093E800089536
:102EC0002091A0033091A1032617370748F0611520
:102ED000710539F42091E8002E772093E80001C0B5
:102EE000B901FC0120E06115710579F18091980329
:102EF0008823F1F18530F1F18091E80083FD3CC039
:102F00008091E80082FD2EC08091E80080FFEBCF29
:102F10002091F3008091F20090E0922B61157105F1
:102F200051F08830910538F421912093F1006150DF
:102F300071090196F3CF21E0089709F020E0809114
:102F4000E8008E778093E800CECF2111CFCF0AC062
:102F500080919803882361F0853061F08091E800CA
:102F600083FD0AC08091E80082FFF2CF80E00895DF
:102F700082E0089583E0089581E00895CF93DF9380
:102F8000CDB7DEB72A970FB6F894DEBF0FBECDBF20
:102F900084B7877F84BF0FB6F894A89580916000AE
:102FA000886180936000109260000FBE90E080E81E
:102FB0000FB6F89480936100909361000FBE85B7BF
:102FC000806885BF85B7806885BF0E9484150E9490
:102FD000A6158091E20084608093E200789480914D
:102FE00098038823A1F01091E9001F709091EC00E4
:102FF000892F817090FD80E8182B1092E900809154
:10300000E80083FD0E94991E1F701093E90082E082
:1030100084BD93E095BD9AEF97BD80936E000E94AA
:10302000F60791E08927809342018091420188232D
:1030300021F0109202018AE103C08AE1809302012B
:10304000809303010E94F607882331F062E070E06C
:1030500082E391E00E94F42280914201809142013A
:10306000811102C094E001C090E09093FB0284E0E3
:10307000891B8093FA02A8EFB1E04CEF51E061E0C8
:1030800070E08D91E82FE295EF70F0E021A18F7054
:103090008B0102C0000F111F8A95E2F7C801902F23
:1030A0009095922391A392A1892B82A34A175B0743
:1030B00041F7A0E0B2E046E052E061E070E08D91BF
:1030C000E82FE295EF70F0E021A18F708B0102C034
:1030D000000F111F8A95E2F7C801902F9095922357
:1030E00091A392A1892B82A34A175B0741F7E2EFD4
:1030F000F2E08AEF92E0AAE0B3E011921D928E17FF
:103100009F07D9F70E9413081FEF29EF80E01150A5
:1031100020408040E1F700C000000E941308809129
:103120000A0380FF08C06FEF7FEF80E090E00E940D
:103130008B240E94CB1980E090E00E9467248C3E93
:103140009E4F11F00E94621A11E0109307010E9435
:10315000CF0D109308010E94F607811106C062E0AE
:1031600070E082E391E00E94FD2280E090E00E9406
:1031700067248C3E9E4F11F00E94621A82E090E01C
:103180000E945924809313030E94511A9093FD02C8
:103190008093FC0283E090E00E945924682F70E045
:1031A00080E090E00E940B1C80910603811139C0E1
:1031B00080E090E00E9467248C3E9E4F21F00E94A8
:1031C000621A0E94DE0788E090E00E94612460930A
:1031D000010370930203809303039093040380918F
:1031E00000038360809300036E7F71F40E94DE070A
:1031F00088E090E00E9461246093010370930203D1
:1032000080930303909304030E9435068091010389
:1032100080FF04C060E086950E94AE0781E0809345
:10322000060383E491E09093080380930703EE2460
:10323000EA9482E1C82E83E0D82E90E1892E22E123
:10324000922E38E1A32EB12C40E4742E8091980385
:10325000853009F034C080919803843009F11092D0
:1032600009030FB6F894A895A09260000FBE709263
:10327000600083B7817F846083BF83B7816083BF31
:103280007894889583B78E7F83BF0FB6F894A895FE
:1032900080916000886180936000109260000FBE92
:1032A00080919703882391F20E941308EAE0F3E0EB
:1032B0008191811159C0CE16DF06D1F7C7CF0E9488
:1032C00013080E94F6078823A1F1E4E1F3E0AAE0E5
:1032D000B3E000E010E0302F2D919191922721F181
:1032E00080E0FF24F3944F2D4923D1F089833A8362
:1032F0002F2181E009F480E08B830E94021A816013
:10330000782F9D838C8349815A816B818D810E94A6
:103310007804F801EC5EFC4F8081F826F08218C03A
:103320008F5FFF0C8630F9F60F5F1F4F08301105D5
:1033300091F6EE82EF8218860E94021A8160782F41
:103340009A8789874E815F8168858A850E94780483
:103350000E94140590911203891709F477CF0E94F7
:1033600014058093120372CF89BC99BC09B400FE86
:10337000FDCF8091D8008F7D8093D8008091E000B0
:1033800082608093E0008091E00081FDFCCF5ECF01
:1033900080918D03089587E797E7909301088093C4
:1033A00000089AE088E10FB6F894A8958093600031
:1033B0000FBE90936000FFCF78941F920F920FB6CC
:1033C0000F9211248F939F93AF93BF9380918803A3
:1033D00090918903A0918A03B0918B030196A11D5E
:1033E000B11D8093880390938903A0938A03B093BF
:1033F0008B03BF91AF919F918F910F900FBE0F9054
:103400001F9018952FB7F8948091880390918903A5
:10341000A0918A03B0918B032FBF08951F920F9242
:103420000FB60F9211248F939F93AF93BF93809108
:103430000903811113C08091880390918903A091A1
:103440008A03B0918B034196A11DB11D809388031F
:1034500090938903A0938A03B0938B03BF91AF919C
:103460009F918F910F900FBE0F901F9018959C0108
:10347000FC0132969FEF80E04191461789F09F3F13
:1034800019F4411101C0982F8F5F8630A9F79F3F33
:1034900039F0F901E90FF11D97FDFA95628308955E
:1034A0000895CF9384E090E00E945924C82F81E2D0
:1034B00090E00E9459242C2F30E0A901582BCA011A
:1034C000CF9108956CEE7EEF80E090E00E948B2417
:1034D00060E082E090E00E946D2460E083E090E094
:1034E0000E946D241092840310928503109286032B
:1034F0001092870360E084E090E00E946D2460E019
:1035000081E290E00E946D2460E085E090E00E94FE
:103510006D2460E086E090E00E946D246FEF87E00C
:1035200090E00E946D2440E050E0BA0188E090E015
:103530000E947F2460E08DE090E00E946D2440E0D6
:1035400050E0BA0188E190E00E947F2460E087E1CA
:1035500090E00E946D2440E050E0BA018CE190E0E0
:103560000E947F2460E080E290E00E946D2440E0B1
:1035700050E0BA018FE090E00E947F2440E050E0EC
:10358000BA0183E190E00C947F2480918303811140
:103590001092830308959091820380918103892B77
:1035A00020918003982F922B90931D038091830389
:1035B000882389F0892B80931D03EFE1F3E097E0E6
:1035C00080E0915029F021912223D9F38F5FF9CF28
:1035D00081110E94C51AE0910703F091080330970A
:1035E00031F00280F381E02D8DE193E0099408959C
:1035F000BF92CF92DF92EF92FF920F931F93CF93E0
:10360000DF938C01C0907B03D0907C03E0907D031E
:10361000F0907E038091840390918503A0918603AE
:10362000B0918703C82AD92AEA2AFB2ACFE1D0E041
:10363000D701C6010C2E04C0B695A795979587951E
:103640000A94D2F780FD04C0219790F7B12C07C0EF
:10365000BC2EB8018C2F0E94830A0197A9F38B2DF1
:10366000DF91CF911F910F91FF90EF90DF90CF905E
:10367000BF900895CF93DF93EC010E94F81ABE012A
:103680000E94830ADF91CF910895292F220F920F74
:10369000990F890F682F669566956695982F977094
:1036A00085E0689FB001112440E050E080E0FB011C
:1036B000E40FF51FE35AFC4F208130E0092E02C0D1
:1036C000369527950A94E2F721703327042E01C01E
:1036D000220F0A94EAF7822B4F5F5F4F4530510566
:1036E00031F70895292F220F920F990F890FE82F94
:1036F000E695E695E695877051E001C0550F8A95ED
:10370000EAF785E0E89FF0011124E35AFC4F20E03E
:1037100030E070E04081CB01022E02C09695879583
:103720000A94E2F781708195842785238427819309
:103730002F5F3F4F2530310569F7089560937B0374
:1037400070937C0380937D0390937E03109281039A
:10375000109280030C94CB1A0F931F9341E050E01A
:1037600060E070E004C0440F551F661F771F8A9504
:10377000D2F7409550956095709580917B0390911C
:103780007C03A0917D03B0917E038A019B010823F5
:1037900019232A233B23C901B8011F910F910C94CF
:1037A0009E1B20917F038095822380937F03982F17
:1037B000977079F430E0482F082E000C550B241731
:1037C000350739F08595859585950E94AC1B10923B
:1037D0007F0308950F931F9341E050E060E070E095
:1037E00004C0440F551F661F771F8A95D2F780913A
:1037F0007B0390917C03A0917D03B0917E038A01AD
:103800009B01082B192B2A2B3B2BC901B8011F91B7
:103810000F910C949E1B6093840370938503809397
:1038200086039093870310928103109280030C9477
:10383000CB1A80915C0390912B03891719F08F5F4D
:103840008770FBCF08950F931F93CF93DF938091E1
:103850002A0382958F7009F05DC080912703882329
:1038600009F458C080915C0310912B0360912503EB
:1038700070912603C0912803D091290391E06F3FF6
:1038800009F090E0292F06E0811709F443C0209742
:1038900021F07F3F21F030E003C031E001C0322F42
:1038A00090E030FD34C0089FF001099FF00D112415
:1038B000DF01A45DBC4F11963C911197371327C0CF
:1038C0003C91361324C012963C91129731111FC0BF
:1038D00013964D915C9114974C1B5D0B483C510520
:1038E000B0F480912A038F70806180932A03EF5C8B
:1038F000FC4F80818F708061808385E293E00E941D
:10390000DC0DDF91CF911F910F910C94191C019642
:103910008770BACFDF91CF911F910F9108959F9239
:10392000AF92BF92CF92DF92EF92FF920F931F93CD
:10393000CF93DF93CDB7DEB761970FB6F894DEBFB4
:103940000FBECDBF8C0185E0F801DE011D96019010
:103950000D928A95E1F7F80190818181E2803091A2
:1039600025036091260340912803509129034115B6
:10397000510531F06F3F31F421E03F3F19F403C0AE
:1039800021E001C020E0F22FF1709F2E20FD23C125
:10399000F801C380D48025E2A22E23E0B22EF0905D
:1039A0002703F601E41BF50BFF2009F4CEC020919C
:1039B0002A03E83CF10508F099C0422F407F09F046
:1039C00051C0681311C039130FC0FE2CE1100CC098
:1039D0002F70206120932A03C5010E94DC0D809185
:1039E0002A03F801858337C1CD2831F08F3F31F4A8
:1039F00021E09F3F19F403C021E001C020E020FD39
:103A000003C021E02E2502C020E030E0F22FF1704B
:103A1000FF2E20FF1DC020915C0340912B0356E038
:103A2000241709F4F6C030E0529FF001539FF00DC7
:103A30001124E45DFC4F6181861306C060819613FA
:103A400003C06281E61204C02F5F3F4F2770E8CFAA
:103A5000FE2CEE2009F4FFC080912A038160809340
:103A60002A0350C0681307C0391305C0E11003C012
:103A7000F80125838DC09D878E878D859E850E9448
:103A8000C321882369F1EE2059F120912A03822F66
:103A900082958F7090E0029774F080912503909149
:103AA000260398878F831986DB86CA862C87CE01EA
:103AB00007960E94DC0D86E0F801A5E2B3E00190D4
:103AC0000D928A95E1F70E94231C0DC06817E1F062
:103AD0009D878E878D859E850E94C32181111EC082
:103AE000C8010E94DC0DFF24F394B5C0422F407F33
:103AF00069F785E293E00E94DC0D86E0F501119202
:103B00008A95E9F7F12CA7C03913E2CFE110E0CF95
:103B1000F8012583C8010E94DC0D57C0EE2001F397
:103B200020912A03822F82958F7090E002971CF2D9
:103B300080912503909126039A8389831B82DD82DD
:103B4000CC822E83CE010196B4CFE83CF105E8F596
:103B5000FE2CEE2029F2681327C0391325C02091CE
:103B60002A0320FD18C0822F82958F70482F50E0C5
:103B70004115510581F0F80125834F30510541F081
:103B80008F5F982F9295907F822F8F70892B8583DE
:103B9000C8010E94DC0D86E0F801A5E2B3E00190C7
:103BA0000D928A95E1F757C09D878E878D859E85FA
:103BB0000E94C32181117FCF80912A03816080936D
:103BC0002A03C8010E94DC0D46C086E0F50111926F
:103BD0008A95E9F740C0EE2009F482CF9D878E8751
:103BE0008D859E850E94C321F82E882309F478CF05
:103BF00086E0F801A5E2B3E001900D928A95E1F725
:103C000080912503909126030E943A1B0E94231C59
:103C100022C09D878E878D859E850E943A1B292F05
:103C200022952F70223028F49F7039F0811105C041
:103C30000BC0243028F49F7049F4805E883020F057
:103C4000C8010E94DC0D9F2CF92C05C0F80195815C
:103C5000907F99F7F9CF8F2D61960FB6F894DEBF5C
:103C60000FBECDBFDF91CF911F910F91FF90EF90CD
:103C7000DF90CF90BF90AF909F9008950F931F93C8
:103C8000CF93DF938C010E940E17811118C0E801B9
:103C900008E010E08091E80085FD0AC08091E8000E
:103CA0008E778093E8000E940E17882399F307C04F
:103CB00089918093F1000150110961F780E0DF9153
:103CC000CF911F910F910895982F973068F5909399
:103CD000E900981739F05091EC002091ED004091E7
:103CE000F00003C0562F40E022E021FD02C09F5F9C
:103CF000ECCF3091EB003E7F3093EB003091ED0044
:103D00003D7F3093ED003091EB0031603093EB005C
:103D10005093EC002093ED004093F0002091EE00D2
:103D200027FDE5CF80E008958F708093E90081E062
:103D300008951F93CF93DF93CDB7DEB7AA970FB641
:103D4000F894DEBF0FBECDBFEAE9F3E08091F10049
:103D5000819323E0E23AF207C9F780919B03833015
:103D600009F460C030F4813071F0823009F49AC0F7
:103D7000B1C08A3009F486C08B3009F46BC0893039
:103D800009F0A8C020C080919A03813A09F0A2C02E
:103D90008091E800877F8093E80080919E03909156
:103DA0009F03892B21F468E08EE893E003C060E074
:103DB00080E090E070E00E9460178091E8008B77CF
:103DC0008093E80087C080919A03813209F082C015
:103DD00080919E0390919F03892B09F07BC0809175
:103DE000E800877F8093E8008091E80082FD05C0AD
:103DF000809198038111F8CF6DC02091F3008091DC
:103E0000F20090E0922B029729F48091F1008B7FD1
:103E1000813021F48091F10080938D038091E8003E
:103E20008B7754C080919A03813A09F053C08091F6
:103E30009E0390919F03892B09F04CC08091E8006C
:103E4000877F8093E8008091E80080FFFCCF80911D
:103E50004D0137C080919A038132E1F580919E0334
:103E600090919F03892BB1F58091E800877F809323
:103E7000E8000E94411780919C0380934D010E94AD
:103E8000EC2128C080919A03813221F58091E800CD
:103E9000877F8093E8000E94411780919D03809363
:103EA0008C0318C080919A03813AA1F48091E800B4
:103EB000877F8093E8008091E80080FFFCCF8091AD
:103EC0008C038093F1008091E8008E778093E80066
:103ED0000E9441178091E80083FFBFC180919A033F
:103EE00090919B03492F50E04A30510508F0B5C12D
:103EF000FA01E057FF4F0C94D524803821F0823826
:103F000009F0ABC108C08091960390919703992363
:103F100089F082600FC080919E038F70873008F017
:103F20009CC18093E9008091EB0085FB882780F994
:103F30001092E9009091E800977F9093E8008093B9
:103F4000F1001092F1005EC1282F2D7F09F085C18C
:103F5000882319F0823061F080C180919C03813008
:103F600009F07BC1933009F080E0809397032EC065
:103F700080919C0381112AC080919E038F702FEF46
:103F8000280F263008F069C18093E9002091EB00EA
:103F900020FF1CC0933021F48091EB00806214C09C
:103FA0009091EB0090619093EB0021E030E0A9014B
:103FB00002C0440F551F8A95E2F74093EA00109221
:103FC000EA008091EB0088608093EB001092E9009A
:103FD0008091E800877F19C181113FC110919C0336
:103FE0001F778091E3008078812B8093E30080919C
:103FF000E800877F8093E8000E9441178091E800E5
:1040000080FFFCCF8091E30080688093E300111172
:1040100002C082E001C083E0809398031EC18058F3
:10402000823008F01AC180919C0390919D038C3DD1
:1040300053E0950779F583E08A838AE289834FB755
:10404000F894DE01139620E03EE051E2E32FF0E029
:1040500050935700E49120FF03C0E295EF703F5F5B
:10406000EF708E2F90E0EA3010F0C79601C0C09636
:104070008D939D932F5F243149F74FBF8091E800C6
:10408000877F8093E8006AE270E0CE0101960E948B
:104090006017A7C040919E0350919F03292F33279B
:1040A00023303105A9F068F42130310509F4E4C06A
:1040B0002230310509F0D1C082E290E0E4E8F6E078
:1040C0003DC02132310579F12232310581F1C5C07F
:1040D000992781309105B9F070F082309105D9F0BF
:1040E000039709F0BAC0E8EBF6E0E4918E2F90E078
:1040F000E8EBF6E020C0E4EFF6E0E4918E2F90E0EC
:10410000E4EFF6E018C0EEEDF6E0E4918E2F90E0DB
:10411000EEEDF6E010C0EEEBF6E0E4918E2F90E0CD
:10412000EEEBF6E008C0452B09F4ABC096C0452B7A
:1041300009F4ACC092C0009709F48FC02091E80048
:10414000277F2093E8002091A0033091A1038217DC
:10415000930708F49C0140E02115310589F1809115
:104160009803882309F43DC08530D9F18091E80097
:1041700083FD37C08091E80082FD2FC08091E80068
:1041800080FFEACF4091F3008091F20090E0942B01
:104190002115310559F08830910540F44491409340
:1041A000F1003196215031090196F2CF41E0089794
:1041B00009F040E08091E8008E778093E800CCCF52
:1041C0004111CDCF0AC080919803882351F08530EA
:1041D00041F08091E80083FD04C08091E80082FFF7
:1041E000F2CF8091E8008B778093E80036C080386A
:1041F000A1F58091E800877F8093E8008091990382
:104200008093F1008091E8008E778093E8000E940F
:10421000411723C0811121C080919C0390919D037F
:1042200099270297D4F48091E800877F8093E80073
:1042300010919C03109399030E944117111106C01D
:104240008091E30087FD02C081E001C084E080939B
:10425000980361EC81E00E94641E8091E80083FF76
:104260001AC08091E800877F8093E8008091EB007E
:1042700080628093EB000FC082E190E0E6EAF6E016
:104280005DCF89E090E0E6E9F6E058CF80E490E089
:10429000E4E4F6E053CFAA960FB6F894DEBF0FBE63
:1042A000CDBFDF91CF911F9108951F920F920FB64E
:1042B0000F9211242F933F934F935F936F937F93AC
:1042C0008F939F93AF93BF93CF93DF93EF93FF931E
:1042D000C091E900CF708091EC00D82FD17080FDA3
:1042E000D0E81092E9008091F000877F8093F00081
:1042F00078940E94991E1092E9008091F0008860E5
:104300008093F000CD2BCF70C093E900FF91EF9127
:10431000DF91CF91BF91AF919F918F917F916F91DD
:104320005F914F913F912F910F900FBE0F901F9073
:104330001895882341F0809590918103892380937B
:1043400081030C94CB1A0895882339F0909181034E
:10435000892B809381030C94CB1A0895882341F014
:104360008095909182038923809382030C94CB1AC9
:104370000895882339F090918203892B80938203DA
:104380000C94CB1A08950E943A1B292F2F70E92F05
:10439000E295EF704E2F50E0FA013297EE30F105C2
:1043A000B8F4E656FF4F0C94D524803F99F018F4EA
:1043B000883E70F40FC0843F59F40CC0883E50F022
:1043C000813F31F407C0822F8695869586950895A2
:1043D00080E0089581E008951092820386E0EFE185
:1043E000F3E0DF011D928A95E9F7109281031092A4
:1043F00080030C94CB1A882309F457C09CEF980FC4
:10440000913A60F4EDE1F3E09281891301C01282E8
:10441000319643E0E332F407B9F714C090E2980F05
:10442000983090F4877021E030E0A90102C0440F79
:10443000551F8A95E2F7CA018095909182038923DE
:10444000809382030C94CB1A9BE5980F9330A0F4D1
:104450008091A2039091A303892B39F11092A303B9
:104460001092A203E0910703F09108033097E9F05E
:104470000680F781E02D16C0885A8731B0F480910C
:10448000A4039091A503892B81F01092A5031092AB
:10449000A403E0910703F0910803309731F0008402
:1044A000F185E02D80E090E009940895CF93882372
:1044B000C9F19CEF980F913AF8F4C82FEFE1F3E0BF
:1044C0008191C81729F043E0E532F407C9F70EC01F
:1044D000EDE1F3E083E293E02281C21301C0128296
:1044E00031968E179F07C1F70E94CB1A6C2F8DE172
:1044F00093E00E94371A13C090E2980F983090F41E
:10450000877021E030E0A90102C0440F551F8A9551
:10451000E2F7CA0190918203892B80938203CF91A5
:104520000C94CB1ACF9108958EE14A9B02C0815022
:10453000E1F74A9BFECF08955A9880E28A95F1F7F9
:104540005A9A0895FC012AE02A95F1F790E020E0BC
:1045500080E031E0261779F040E14A95F1F7880FC5
:104560004A9B02C08160932700C0000040E14A9549
:10457000F1F72F5FEFCF20E12A95F1F729B100C0C5
:10458000000030E13A95F1F722FB222720F992272B
:104590002081920F90830895EF92FF920F931F93C3
:1045A000CF93DF931F92CDB7DEB719828C017C01C8
:1045B000E60EF11C0E151F0559F00E94942268E0CA
:1045C000CE0101960E94A222F80181938F01F2CFC1
:1045D00081E09981911180E00F90DF91CF911F913F
:1045E0000F91FF90EF9008959093A8038093A703F5
:1045F0006093A603529A5A9A08959093A8038093C1
:10460000A7036093A60352985A9AEA9AE9E6F0E063
:1046100080818F7C80830895615091E001C0990F63
:104620006A95EAF720E031E0992361F0492F4823A9
:1046300019F05A9A232701C05A9840E24A95F1F797
:104640009695F2CF222311F05A9A01C05A9880E22F
:104650008A95F1F75A980895FF920F931F93CF937D
:10466000DF93EC018C01060F111DC017D10741F03B
:10467000F9900E949C2268E08F2D0E940C23F5CFB8
:10468000DF91CF911F910F91FF9008951F920F928C
:104690000FB60F9211240F931F932F933F934F93B5
:1046A0005F936F937F938F939F93AF93BF93EF939A
:1046B000FF93CF93DF931F92CDB7DEB719820E948D
:1046C000942267E0CE0101960E94A222382F3695EF
:1046D00036953695932F96959570232F2570920FCA
:1046E000292F2370969596958770920F891348C04D
:1046F0008981811145C08091A603831708F440C0C9
:1047000080E18A95F1F75A9A529AA2E0AA95F1F7B8
:1047100000C00091A7031091A803B8E03B9F000DD3
:10472000111D11245A98F8016581662321F08681B4
:1047300097810E942C230E949C22F0E1FA95F1F7C8
:104740005A9852985A9A80E18A95F1F7D8011296B0
:104750006C911297662369F013968D919C91149732
:104760000E94CC22D801ED91FC91811105C082E01C
:1047700004C0D801ED91FC9188E080830E949422CE
:104780000F90DF91CF91FF91EF91BF91AF919F91EA
:104790008F917F916F915F914F913F912F911F91D9
:1047A0000F910F900FBE0F901F9018950F931F93AE
:1047B000CF93DF932091A60330E0281739070CF43C
:1047C00071C09C0193E0220F331F9A95E1F7C091CD
:1047D000A703D091A803C20FD31FF894529A5A98F6
:1047E00045E04A95F1F70000982F969595708570F1
:1047F000890F982F937086958695890F8901082BCC
:104800000E949C2284E08A95F1F700C067E0802F27
:104810000E940C2340E14A95F1F752985A9A4A991E
:1048200002C000C0FCCF87E090E04A9B0EC0019719
:1048300051F4529A5A9AE881F98181E08083789400
:1048400081E090E031C000C0F0CF6D81662381F03F
:104850008E819F810E94CC2281110AC0529A5A9A5D
:10486000E881F98182E08083789482E090E01CC046
:104870000E94942280E28A95F1F75A98529A40E178
:104880004A95F1F76A81662321F08B819C810E9411
:104890002C230E949C22E881F9811082789480E088
:1048A00090E002C084E090E0DF91CF911F910F91E2
:1048B0000895F999FECF92BD81BDF89A992780B5E8
:1048C0000895A6E1B0E044E050E00C949324A8E100
:1048D000B0E042E050E00C949324262FF999FECFEB
:1048E00092BD81BDF89A019700B4021639F01FBA43
:1048F00020BD0FB6F894FA9AF99A0FBE0895039660
:10490000272F0E946E240E946D24252F0E946E2462
:10491000242F0C946E240196272F0E946E240C9451
:104920006D24DC01CB01FC01F999FECF06C0F2BD7C
:10493000E1BDF89A319600B40D9241505040B8F75D
:104940000895991B79E004C0991F961708F0961BEB
:10495000881F7A95C9F780950895AA1BBB1B51E162
:1049600007C0AA1FBB1FA617B70710F0A61BB70BDF
:10497000881F991F5A95A9F780959095BC01CD0184
:10498000089597FB072E16F4009407D077FD09D001
:104990000E94AD2407FC05D03EF4909581959F4F71
:1049A0000895709561957F4F0895EE0FFF1F059054
:0A49B000F491E02D0994F894FFCF74
:1049BA00010100340034340000000000000021002E
:1049CA0000000000000000000000000000000000DD
:1049DA0000000000000000000000000000000000CD
:1049EA000000F10200F10204ED02EC0208E4020008
:1049FA00000001C8190616A515A315A41501200063
:104A0A00200020002000000020202020002020007C
:104A1A0000202031303035303031353535353034BD
:104A2A003030303030363636360031303031303092
:104A3A00313031313130343030303030363736364B
:104A4A00003130353535303130353535303435355E
:104A5A003535303736363600323333333333313344
:104A6A003333333334353535343537373637003128
:104A7A00303034303031343434343035303430300E
:104A8A0030363636360063017A019101A801BF013A
:104A9A0000013025241A1B1C312F262322213332F0
:104AAA002E2728292B2A2D2C946697C60000000051
:064ABA003331F7F6F5F4BC
:00000001FF
